{
  "contractName": "CharacterToken",
  "abi": [
    {
      "inputs": [
        {
          "internalType": "string",
          "name": "_name",
          "type": "string"
        },
        {
          "internalType": "string",
          "name": "_symbol",
          "type": "string"
        }
      ],
      "stateMutability": "nonpayable",
      "type": "constructor"
    },
    {
      "anonymous": false,
      "inputs": [
        {
          "indexed": true,
          "internalType": "address",
          "name": "owner",
          "type": "address"
        },
        {
          "indexed": true,
          "internalType": "address",
          "name": "approved",
          "type": "address"
        },
        {
          "indexed": true,
          "internalType": "uint256",
          "name": "tokenId",
          "type": "uint256"
        }
      ],
      "name": "Approval",
      "type": "event"
    },
    {
      "anonymous": false,
      "inputs": [
        {
          "indexed": true,
          "internalType": "address",
          "name": "owner",
          "type": "address"
        },
        {
          "indexed": true,
          "internalType": "address",
          "name": "operator",
          "type": "address"
        },
        {
          "indexed": false,
          "internalType": "bool",
          "name": "approved",
          "type": "bool"
        }
      ],
      "name": "ApprovalForAll",
      "type": "event"
    },
    {
      "anonymous": false,
      "inputs": [
        {
          "indexed": true,
          "internalType": "address",
          "name": "previousOwner",
          "type": "address"
        },
        {
          "indexed": true,
          "internalType": "address",
          "name": "newOwner",
          "type": "address"
        }
      ],
      "name": "OwnershipTransferred",
      "type": "event"
    },
    {
      "anonymous": false,
      "inputs": [
        {
          "indexed": true,
          "internalType": "address",
          "name": "from",
          "type": "address"
        },
        {
          "indexed": true,
          "internalType": "address",
          "name": "to",
          "type": "address"
        },
        {
          "indexed": true,
          "internalType": "uint256",
          "name": "tokenId",
          "type": "uint256"
        }
      ],
      "name": "Transfer",
      "type": "event"
    },
    {
      "inputs": [
        {
          "internalType": "address",
          "name": "to",
          "type": "address"
        },
        {
          "internalType": "uint256",
          "name": "tokenId",
          "type": "uint256"
        }
      ],
      "name": "approve",
      "outputs": [],
      "stateMutability": "nonpayable",
      "type": "function"
    },
    {
      "inputs": [
        {
          "internalType": "address",
          "name": "owner",
          "type": "address"
        }
      ],
      "name": "balanceOf",
      "outputs": [
        {
          "internalType": "uint256",
          "name": "",
          "type": "uint256"
        }
      ],
      "stateMutability": "view",
      "type": "function"
    },
    {
      "inputs": [
        {
          "internalType": "uint256",
          "name": "tokenId",
          "type": "uint256"
        }
      ],
      "name": "getApproved",
      "outputs": [
        {
          "internalType": "address",
          "name": "",
          "type": "address"
        }
      ],
      "stateMutability": "view",
      "type": "function"
    },
    {
      "inputs": [
        {
          "internalType": "address",
          "name": "owner",
          "type": "address"
        },
        {
          "internalType": "address",
          "name": "operator",
          "type": "address"
        }
      ],
      "name": "isApprovedForAll",
      "outputs": [
        {
          "internalType": "bool",
          "name": "",
          "type": "bool"
        }
      ],
      "stateMutability": "view",
      "type": "function"
    },
    {
      "inputs": [],
      "name": "name",
      "outputs": [
        {
          "internalType": "string",
          "name": "",
          "type": "string"
        }
      ],
      "stateMutability": "view",
      "type": "function"
    },
    {
      "inputs": [],
      "name": "owner",
      "outputs": [
        {
          "internalType": "address",
          "name": "",
          "type": "address"
        }
      ],
      "stateMutability": "view",
      "type": "function"
    },
    {
      "inputs": [
        {
          "internalType": "uint256",
          "name": "tokenId",
          "type": "uint256"
        }
      ],
      "name": "ownerOf",
      "outputs": [
        {
          "internalType": "address",
          "name": "",
          "type": "address"
        }
      ],
      "stateMutability": "view",
      "type": "function"
    },
    {
      "inputs": [],
      "name": "renounceOwnership",
      "outputs": [],
      "stateMutability": "nonpayable",
      "type": "function"
    },
    {
      "inputs": [
        {
          "internalType": "address",
          "name": "from",
          "type": "address"
        },
        {
          "internalType": "address",
          "name": "to",
          "type": "address"
        },
        {
          "internalType": "uint256",
          "name": "tokenId",
          "type": "uint256"
        }
      ],
      "name": "safeTransferFrom",
      "outputs": [],
      "stateMutability": "nonpayable",
      "type": "function"
    },
    {
      "inputs": [
        {
          "internalType": "address",
          "name": "from",
          "type": "address"
        },
        {
          "internalType": "address",
          "name": "to",
          "type": "address"
        },
        {
          "internalType": "uint256",
          "name": "tokenId",
          "type": "uint256"
        },
        {
          "internalType": "bytes",
          "name": "data",
          "type": "bytes"
        }
      ],
      "name": "safeTransferFrom",
      "outputs": [],
      "stateMutability": "nonpayable",
      "type": "function"
    },
    {
      "inputs": [
        {
          "internalType": "address",
          "name": "operator",
          "type": "address"
        },
        {
          "internalType": "bool",
          "name": "approved",
          "type": "bool"
        }
      ],
      "name": "setApprovalForAll",
      "outputs": [],
      "stateMutability": "nonpayable",
      "type": "function"
    },
    {
      "inputs": [],
      "name": "symbol",
      "outputs": [
        {
          "internalType": "string",
          "name": "",
          "type": "string"
        }
      ],
      "stateMutability": "view",
      "type": "function"
    },
    {
      "inputs": [
        {
          "internalType": "uint256",
          "name": "index",
          "type": "uint256"
        }
      ],
      "name": "tokenByIndex",
      "outputs": [
        {
          "internalType": "uint256",
          "name": "",
          "type": "uint256"
        }
      ],
      "stateMutability": "view",
      "type": "function"
    },
    {
      "inputs": [
        {
          "internalType": "address",
          "name": "owner",
          "type": "address"
        },
        {
          "internalType": "uint256",
          "name": "index",
          "type": "uint256"
        }
      ],
      "name": "tokenOfOwnerByIndex",
      "outputs": [
        {
          "internalType": "uint256",
          "name": "",
          "type": "uint256"
        }
      ],
      "stateMutability": "view",
      "type": "function"
    },
    {
      "inputs": [],
      "name": "totalSupply",
      "outputs": [
        {
          "internalType": "uint256",
          "name": "",
          "type": "uint256"
        }
      ],
      "stateMutability": "view",
      "type": "function"
    },
    {
      "inputs": [
        {
          "internalType": "address",
          "name": "from",
          "type": "address"
        },
        {
          "internalType": "address",
          "name": "to",
          "type": "address"
        },
        {
          "internalType": "uint256",
          "name": "tokenId",
          "type": "uint256"
        }
      ],
      "name": "transferFrom",
      "outputs": [],
      "stateMutability": "nonpayable",
      "type": "function"
    },
    {
      "inputs": [
        {
          "internalType": "address",
          "name": "newOwner",
          "type": "address"
        }
      ],
      "name": "transferOwnership",
      "outputs": [],
      "stateMutability": "nonpayable",
      "type": "function"
    },
    {
      "inputs": [
        {
          "internalType": "bytes4",
          "name": "interfaceId",
          "type": "bytes4"
        }
      ],
      "name": "supportsInterface",
      "outputs": [
        {
          "internalType": "bool",
          "name": "",
          "type": "bool"
        }
      ],
      "stateMutability": "view",
      "type": "function"
    },
    {
      "inputs": [
        {
          "internalType": "uint256",
          "name": "tokenId",
          "type": "uint256"
        }
      ],
      "name": "tokenURI",
      "outputs": [
        {
          "internalType": "string",
          "name": "",
          "type": "string"
        }
      ],
      "stateMutability": "view",
      "type": "function"
    },
    {
      "inputs": [
        {
          "internalType": "string",
          "name": "uri",
          "type": "string"
        }
      ],
      "name": "safeMint",
      "outputs": [],
      "stateMutability": "nonpayable",
      "type": "function"
    }
  ],
  "bytecode": "0x60806040523480156200001157600080fd5b5060405162003e2138038062003e218339818101604052810190620000379190620002e8565b818181600090816200004a9190620005b8565b5080600190816200005c9190620005b8565b5050506200007f620000736200008760201b60201c565b6200008f60201b60201c565b50506200069f565b600033905090565b6000600b60009054906101000a900473ffffffffffffffffffffffffffffffffffffffff16905081600b60006101000a81548173ffffffffffffffffffffffffffffffffffffffff021916908373ffffffffffffffffffffffffffffffffffffffff1602179055508173ffffffffffffffffffffffffffffffffffffffff168173ffffffffffffffffffffffffffffffffffffffff167f8be0079c531659141344cd1fd0a4f28419497f9722a3daafe3b4186f6b6457e060405160405180910390a35050565b6000604051905090565b600080fd5b600080fd5b600080fd5b600080fd5b6000601f19601f8301169050919050565b7f4e487b7100000000000000000000000000000000000000000000000000000000600052604160045260246000fd5b620001be8262000173565b810181811067ffffffffffffffff82111715620001e057620001df62000184565b5b80604052505050565b6000620001f562000155565b9050620002038282620001b3565b919050565b600067ffffffffffffffff82111562000226576200022562000184565b5b620002318262000173565b9050602081019050919050565b60005b838110156200025e57808201518184015260208101905062000241565b60008484015250505050565b6000620002816200027b8462000208565b620001e9565b905082815260208101848484011115620002a0576200029f6200016e565b5b620002ad8482856200023e565b509392505050565b600082601f830112620002cd57620002cc62000169565b5b8151620002df8482602086016200026a565b91505092915050565b600080604083850312156200030257620003016200015f565b5b600083015167ffffffffffffffff81111562000323576200032262000164565b5b6200033185828601620002b5565b925050602083015167ffffffffffffffff81111562000355576200035462000164565b5b6200036385828601620002b5565b9150509250929050565b600081519050919050565b7f4e487b7100000000000000000000000000000000000000000000000000000000600052602260045260246000fd5b60006002820490506001821680620003c057607f821691505b602082108103620003d657620003d562000378565b5b50919050565b60008190508160005260206000209050919050565b60006020601f8301049050919050565b600082821b905092915050565b600060088302620004407fffffffffffffffffffffffffffffffffffffffffffffffffffffffffffffffff8262000401565b6200044c868362000401565b95508019841693508086168417925050509392505050565b6000819050919050565b6000819050919050565b600062000499620004936200048d8462000464565b6200046e565b62000464565b9050919050565b6000819050919050565b620004b58362000478565b620004cd620004c482620004a0565b8484546200040e565b825550505050565b600090565b620004e4620004d5565b620004f1818484620004aa565b505050565b5b8181101562000519576200050d600082620004da565b600181019050620004f7565b5050565b601f82111562000568576200053281620003dc565b6200053d84620003f1565b810160208510156200054d578190505b620005656200055c85620003f1565b830182620004f6565b50505b505050565b600082821c905092915050565b60006200058d600019846008026200056d565b1980831691505092915050565b6000620005a883836200057a565b9150826002028217905092915050565b620005c3826200036d565b67ffffffffffffffff811115620005df57620005de62000184565b5b620005eb8254620003a7565b620005f88282856200051d565b600060209050601f8311600181146200063057600084156200061b578287015190505b6200062785826200059a565b86555062000697565b601f1984166200064086620003dc565b60005b828110156200066a5784890151825560018201915060208501945060208101905062000643565b868310156200068a578489015162000686601f8916826200057a565b8355505b6001600288020188555050505b505050505050565b61377280620006af6000396000f3fe608060405234801561001057600080fd5b506004361061012c5760003560e01c8063695850fb116100ad578063a22cb46511610071578063a22cb46514610343578063b88d4fde1461035f578063c87b56dd1461037b578063e985e9c5146103ab578063f2fde38b146103db5761012c565b8063695850fb146102b157806370a08231146102cd578063715018a6146102fd5780638da5cb5b1461030757806395d89b41146103255761012c565b806323b872dd116100f457806323b872dd146101e95780632f745c591461020557806342842e0e146102355780634f6ccce7146102515780636352211e146102815761012c565b806301ffc9a71461013157806306fdde0314610161578063081812fc1461017f578063095ea7b3146101af57806318160ddd146101cb575b600080fd5b61014b600480360381019061014691906122dd565b6103f7565b6040516101589190612325565b60405180910390f35b610169610409565b60405161017691906123d0565b60405180910390f35b61019960048036038101906101949190612428565b61049b565b6040516101a69190612496565b60405180910390f35b6101c960048036038101906101c491906124dd565b6104e1565b005b6101d36105f8565b6040516101e0919061252c565b60405180910390f35b61020360048036038101906101fe9190612547565b610605565b005b61021f600480360381019061021a91906124dd565b610665565b60405161022c919061252c565b60405180910390f35b61024f600480360381019061024a9190612547565b61070a565b005b61026b60048036038101906102669190612428565b61072a565b604051610278919061252c565b60405180910390f35b61029b60048036038101906102969190612428565b61079b565b6040516102a89190612496565b60405180910390f35b6102cb60048036038101906102c691906126cf565b610821565b005b6102e760048036038101906102e29190612718565b610851565b6040516102f4919061252c565b60405180910390f35b610305610908565b005b61030f61091c565b60405161031c9190612496565b60405180910390f35b61032d610946565b60405161033a91906123d0565b60405180910390f35b61035d60048036038101906103589190612771565b6109d8565b005b61037960048036038101906103749190612852565b6109ee565b005b61039560048036038101906103909190612428565b610a50565b6040516103a291906123d0565b60405180910390f35b6103c560048036038101906103c091906128d5565b610a62565b6040516103d29190612325565b60405180910390f35b6103f560048036038101906103f09190612718565b610af6565b005b600061040282610b79565b9050919050565b60606000805461041890612944565b80601f016020809104026020016040519081016040528092919081815260200182805461044490612944565b80156104915780601f1061046657610100808354040283529160200191610491565b820191906000526020600020905b81548152906001019060200180831161047457829003601f168201915b5050505050905090565b60006104a682610bf3565b6004600083815260200190815260200160002060009054906101000a900473ffffffffffffffffffffffffffffffffffffffff169050919050565b60006104ec8261079b565b90508073ffffffffffffffffffffffffffffffffffffffff168373ffffffffffffffffffffffffffffffffffffffff160361055c576040517f08c379a0000000000000000000000000000000000000000000000000000000008152600401610553906129e7565b60405180910390fd5b8073ffffffffffffffffffffffffffffffffffffffff1661057b610c3e565b73ffffffffffffffffffffffffffffffffffffffff1614806105aa57506105a9816105a4610c3e565b610a62565b5b6105e9576040517f08c379a00000000000000000000000000000000000000000000000000000000081526004016105e090612a79565b60405180910390fd5b6105f38383610c46565b505050565b6000600880549050905090565b610616610610610c3e565b82610cff565b610655576040517f08c379a000000000000000000000000000000000000000000000000000000000815260040161064c90612b0b565b60405180910390fd5b610660838383610d94565b505050565b600061067083610851565b82106106b1576040517f08c379a00000000000000000000000000000000000000000000000000000000081526004016106a890612b9d565b60405180910390fd5b600660008473ffffffffffffffffffffffffffffffffffffffff1673ffffffffffffffffffffffffffffffffffffffff168152602001908152602001600020600083815260200190815260200160002054905092915050565b610725838383604051806020016040528060008152506109ee565b505050565b60006107346105f8565b8210610775576040517f08c379a000000000000000000000000000000000000000000000000000000000815260040161076c90612c2f565b60405180910390fd5b6008828154811061078957610788612c4f565b5b90600052602060002001549050919050565b6000806107a78361108d565b9050600073ffffffffffffffffffffffffffffffffffffffff168173ffffffffffffffffffffffffffffffffffffffff1603610818576040517f08c379a000000000000000000000000000000000000000000000000000000000815260040161080f90612cca565b60405180910390fd5b80915050919050565b600061082d600c6110ca565b9050610839600c6110d8565b61084333826110ee565b61084d818361110c565b5050565b60008073ffffffffffffffffffffffffffffffffffffffff168273ffffffffffffffffffffffffffffffffffffffff16036108c1576040517f08c379a00000000000000000000000000000000000000000000000000000000081526004016108b890612d5c565b60405180910390fd5b600360008373ffffffffffffffffffffffffffffffffffffffff1673ffffffffffffffffffffffffffffffffffffffff168152602001908152602001600020549050919050565b610910611179565b61091a60006111f7565b565b6000600b60009054906101000a900473ffffffffffffffffffffffffffffffffffffffff16905090565b60606001805461095590612944565b80601f016020809104026020016040519081016040528092919081815260200182805461098190612944565b80156109ce5780601f106109a3576101008083540402835291602001916109ce565b820191906000526020600020905b8154815290600101906020018083116109b157829003601f168201915b5050505050905090565b6109ea6109e3610c3e565b83836112bd565b5050565b6109ff6109f9610c3e565b83610cff565b610a3e576040517f08c379a0000000000000000000000000000000000000000000000000000000008152600401610a3590612b0b565b60405180910390fd5b610a4a84848484611429565b50505050565b6060610a5b82611485565b9050919050565b6000600560008473ffffffffffffffffffffffffffffffffffffffff1673ffffffffffffffffffffffffffffffffffffffff16815260200190815260200160002060008373ffffffffffffffffffffffffffffffffffffffff1673ffffffffffffffffffffffffffffffffffffffff16815260200190815260200160002060009054906101000a900460ff16905092915050565b610afe611179565b600073ffffffffffffffffffffffffffffffffffffffff168173ffffffffffffffffffffffffffffffffffffffff1603610b6d576040517f08c379a0000000000000000000000000000000000000000000000000000000008152600401610b6490612dee565b60405180910390fd5b610b76816111f7565b50565b60007f780e9d63000000000000000000000000000000000000000000000000000000007bffffffffffffffffffffffffffffffffffffffffffffffffffffffff1916827bffffffffffffffffffffffffffffffffffffffffffffffffffffffff19161480610bec5750610beb82611597565b5b9050919050565b610bfc81611679565b610c3b576040517f08c379a0000000000000000000000000000000000000000000000000000000008152600401610c3290612cca565b60405180910390fd5b50565b600033905090565b816004600083815260200190815260200160002060006101000a81548173ffffffffffffffffffffffffffffffffffffffff021916908373ffffffffffffffffffffffffffffffffffffffff160217905550808273ffffffffffffffffffffffffffffffffffffffff16610cb98361079b565b73ffffffffffffffffffffffffffffffffffffffff167f8c5be1e5ebec7d5bd14f71427d1e84f3dd0314c0f7b2291e5b200ac8c7c3b92560405160405180910390a45050565b600080610d0b8361079b565b90508073ffffffffffffffffffffffffffffffffffffffff168473ffffffffffffffffffffffffffffffffffffffff161480610d4d5750610d4c8185610a62565b5b80610d8b57508373ffffffffffffffffffffffffffffffffffffffff16610d738461049b565b73ffffffffffffffffffffffffffffffffffffffff16145b91505092915050565b8273ffffffffffffffffffffffffffffffffffffffff16610db48261079b565b73ffffffffffffffffffffffffffffffffffffffff1614610e0a576040517f08c379a0000000000000000000000000000000000000000000000000000000008152600401610e0190612e80565b60405180910390fd5b600073ffffffffffffffffffffffffffffffffffffffff168273ffffffffffffffffffffffffffffffffffffffff1603610e79576040517f08c379a0000000000000000000000000000000000000000000000000000000008152600401610e7090612f12565b60405180910390fd5b610e8683838360016116ba565b8273ffffffffffffffffffffffffffffffffffffffff16610ea68261079b565b73ffffffffffffffffffffffffffffffffffffffff1614610efc576040517f08c379a0000000000000000000000000000000000000000000000000000000008152600401610ef390612e80565b60405180910390fd5b6004600082815260200190815260200160002060006101000a81549073ffffffffffffffffffffffffffffffffffffffff02191690556001600360008573ffffffffffffffffffffffffffffffffffffffff1673ffffffffffffffffffffffffffffffffffffffff168152602001908152602001600020600082825403925050819055506001600360008473ffffffffffffffffffffffffffffffffffffffff1673ffffffffffffffffffffffffffffffffffffffff16815260200190815260200160002060008282540192505081905550816002600083815260200190815260200160002060006101000a81548173ffffffffffffffffffffffffffffffffffffffff021916908373ffffffffffffffffffffffffffffffffffffffff160217905550808273ffffffffffffffffffffffffffffffffffffffff168473ffffffffffffffffffffffffffffffffffffffff167fddf252ad1be2c89b69c2b068fc378daa952ba7f163c4a11628f55a4df523b3ef60405160405180910390a461108883838360016116cc565b505050565b60006002600083815260200190815260200160002060009054906101000a900473ffffffffffffffffffffffffffffffffffffffff169050919050565b600081600001549050919050565b6001816000016000828254019250508190555050565b6111088282604051806020016040528060008152506116d2565b5050565b61111582611679565b611154576040517f08c379a000000000000000000000000000000000000000000000000000000000815260040161114b90612fa4565b60405180910390fd5b80600a600084815260200190815260200160002090816111749190613170565b505050565b611181610c3e565b73ffffffffffffffffffffffffffffffffffffffff1661119f61091c565b73ffffffffffffffffffffffffffffffffffffffff16146111f5576040517f08c379a00000000000000000000000000000000000000000000000000000000081526004016111ec9061328e565b60405180910390fd5b565b6000600b60009054906101000a900473ffffffffffffffffffffffffffffffffffffffff16905081600b60006101000a81548173ffffffffffffffffffffffffffffffffffffffff021916908373ffffffffffffffffffffffffffffffffffffffff1602179055508173ffffffffffffffffffffffffffffffffffffffff168173ffffffffffffffffffffffffffffffffffffffff167f8be0079c531659141344cd1fd0a4f28419497f9722a3daafe3b4186f6b6457e060405160405180910390a35050565b8173ffffffffffffffffffffffffffffffffffffffff168373ffffffffffffffffffffffffffffffffffffffff160361132b576040517f08c379a0000000000000000000000000000000000000000000000000000000008152600401611322906132fa565b60405180910390fd5b80600560008573ffffffffffffffffffffffffffffffffffffffff1673ffffffffffffffffffffffffffffffffffffffff16815260200190815260200160002060008473ffffffffffffffffffffffffffffffffffffffff1673ffffffffffffffffffffffffffffffffffffffff16815260200190815260200160002060006101000a81548160ff0219169083151502179055508173ffffffffffffffffffffffffffffffffffffffff168373ffffffffffffffffffffffffffffffffffffffff167f17307eab39ab6107e8899845ad3d59bd9653f200f220920489ca2b5937696c318360405161141c9190612325565b60405180910390a3505050565b611434848484610d94565b6114408484848461172d565b61147f576040517f08c379a00000000000000000000000000000000000000000000000000000000081526004016114769061338c565b60405180910390fd5b50505050565b606061149082610bf3565b6000600a600084815260200190815260200160002080546114b090612944565b80601f01602080910402602001604051908101604052809291908181526020018280546114dc90612944565b80156115295780601f106114fe57610100808354040283529160200191611529565b820191906000526020600020905b81548152906001019060200180831161150c57829003601f168201915b50505050509050600061153a6118b4565b9050600081510361154f578192505050611592565b60008251111561158457808260405160200161156c9291906133e8565b60405160208183030381529060405292505050611592565b61158d846118d4565b925050505b919050565b60007f80ac58cd000000000000000000000000000000000000000000000000000000007bffffffffffffffffffffffffffffffffffffffffffffffffffffffff1916827bffffffffffffffffffffffffffffffffffffffffffffffffffffffff1916148061166257507f5b5e139f000000000000000000000000000000000000000000000000000000007bffffffffffffffffffffffffffffffffffffffffffffffffffffffff1916827bffffffffffffffffffffffffffffffffffffffffffffffffffffffff1916145b8061167257506116718261193c565b5b9050919050565b60008073ffffffffffffffffffffffffffffffffffffffff1661169b8361108d565b73ffffffffffffffffffffffffffffffffffffffff1614159050919050565b6116c6848484846119a6565b50505050565b50505050565b6116dc8383611b04565b6116e9600084848461172d565b611728576040517f08c379a000000000000000000000000000000000000000000000000000000000815260040161171f9061338c565b60405180910390fd5b505050565b600061174e8473ffffffffffffffffffffffffffffffffffffffff16611d21565b156118a7578373ffffffffffffffffffffffffffffffffffffffff1663150b7a02611777610c3e565b8786866040518563ffffffff1660e01b81526004016117999493929190613461565b6020604051808303816000875af19250505080156117d557506040513d601f19601f820116820180604052508101906117d291906134c2565b60015b611857573d8060008114611805576040519150601f19603f3d011682016040523d82523d6000602084013e61180a565b606091505b50600081510361184f576040517f08c379a00000000000000000000000000000000000000000000000000000000081526004016118469061338c565b60405180910390fd5b805181602001fd5b63150b7a0260e01b7bffffffffffffffffffffffffffffffffffffffffffffffffffffffff1916817bffffffffffffffffffffffffffffffffffffffffffffffffffffffff1916149150506118ac565b600190505b949350505050565b606060405180606001604052806022815260200161371b60229139905090565b60606118df82610bf3565b60006118e96118b4565b905060008151116119095760405180602001604052806000815250611934565b8061191384611d44565b6040516020016119249291906133e8565b6040516020818303038152906040525b915050919050565b60007f01ffc9a7000000000000000000000000000000000000000000000000000000007bffffffffffffffffffffffffffffffffffffffffffffffffffffffff1916827bffffffffffffffffffffffffffffffffffffffffffffffffffffffff1916149050919050565b6119b284848484611e12565b60018111156119f6576040517f08c379a00000000000000000000000000000000000000000000000000000000081526004016119ed90613561565b60405180910390fd5b6000829050600073ffffffffffffffffffffffffffffffffffffffff168573ffffffffffffffffffffffffffffffffffffffff1603611a3d57611a3881611e18565b611a7c565b8373ffffffffffffffffffffffffffffffffffffffff168573ffffffffffffffffffffffffffffffffffffffff1614611a7b57611a7a8582611e61565b5b5b600073ffffffffffffffffffffffffffffffffffffffff168473ffffffffffffffffffffffffffffffffffffffff1603611abe57611ab981611fce565b611afd565b8473ffffffffffffffffffffffffffffffffffffffff168473ffffffffffffffffffffffffffffffffffffffff1614611afc57611afb848261209f565b5b5b5050505050565b600073ffffffffffffffffffffffffffffffffffffffff168273ffffffffffffffffffffffffffffffffffffffff1603611b73576040517f08c379a0000000000000000000000000000000000000000000000000000000008152600401611b6a906135cd565b60405180910390fd5b611b7c81611679565b15611bbc576040517f08c379a0000000000000000000000000000000000000000000000000000000008152600401611bb390613639565b60405180910390fd5b611bca6000838360016116ba565b611bd381611679565b15611c13576040517f08c379a0000000000000000000000000000000000000000000000000000000008152600401611c0a90613639565b60405180910390fd5b6001600360008473ffffffffffffffffffffffffffffffffffffffff1673ffffffffffffffffffffffffffffffffffffffff16815260200190815260200160002060008282540192505081905550816002600083815260200190815260200160002060006101000a81548173ffffffffffffffffffffffffffffffffffffffff021916908373ffffffffffffffffffffffffffffffffffffffff160217905550808273ffffffffffffffffffffffffffffffffffffffff16600073ffffffffffffffffffffffffffffffffffffffff167fddf252ad1be2c89b69c2b068fc378daa952ba7f163c4a11628f55a4df523b3ef60405160405180910390a4611d1d6000838360016116cc565b5050565b6000808273ffffffffffffffffffffffffffffffffffffffff163b119050919050565b606060006001611d538461211e565b01905060008167ffffffffffffffff811115611d7257611d716125a4565b5b6040519080825280601f01601f191660200182016040528015611da45781602001600182028036833780820191505090505b509050600082602001820190505b600115611e07578080600190039150507f3031323334353637383961626364656600000000000000000000000000000000600a86061a8153600a8581611dfb57611dfa613659565b5b04945060008503611db2575b819350505050919050565b50505050565b6008805490506009600083815260200190815260200160002081905550600881908060018154018082558091505060019003906000526020600020016000909190919091505550565b60006001611e6e84610851565b611e7891906136b7565b9050600060076000848152602001908152602001600020549050818114611f5d576000600660008673ffffffffffffffffffffffffffffffffffffffff1673ffffffffffffffffffffffffffffffffffffffff168152602001908152602001600020600084815260200190815260200160002054905080600660008773ffffffffffffffffffffffffffffffffffffffff1673ffffffffffffffffffffffffffffffffffffffff168152602001908152602001600020600084815260200190815260200160002081905550816007600083815260200190815260200160002081905550505b6007600084815260200190815260200160002060009055600660008573ffffffffffffffffffffffffffffffffffffffff1673ffffffffffffffffffffffffffffffffffffffff16815260200190815260200160002060008381526020019081526020016000206000905550505050565b60006001600880549050611fe291906136b7565b905060006009600084815260200190815260200160002054905060006008838154811061201257612011612c4f565b5b90600052602060002001549050806008838154811061203457612033612c4f565b5b906000526020600020018190555081600960008381526020019081526020016000208190555060096000858152602001908152602001600020600090556008805480612083576120826136eb565b5b6001900381819060005260206000200160009055905550505050565b60006120aa83610851565b905081600660008573ffffffffffffffffffffffffffffffffffffffff1673ffffffffffffffffffffffffffffffffffffffff168152602001908152602001600020600083815260200190815260200160002081905550806007600084815260200190815260200160002081905550505050565b600080600090507a184f03e93ff9f4daa797ed6e38ed64bf6a1f010000000000000000831061217c577a184f03e93ff9f4daa797ed6e38ed64bf6a1f010000000000000000838161217257612171613659565b5b0492506040810190505b6d04ee2d6d415b85acef810000000083106121b9576d04ee2d6d415b85acef810000000083816121af576121ae613659565b5b0492506020810190505b662386f26fc1000083106121e857662386f26fc1000083816121de576121dd613659565b5b0492506010810190505b6305f5e1008310612211576305f5e100838161220757612206613659565b5b0492506008810190505b612710831061223657612710838161222c5761222b613659565b5b0492506004810190505b60648310612259576064838161224f5761224e613659565b5b0492506002810190505b600a8310612268576001810190505b80915050919050565b6000604051905090565b600080fd5b600080fd5b60007fffffffff0000000000000000000000000000000000000000000000000000000082169050919050565b6122ba81612285565b81146122c557600080fd5b50565b6000813590506122d7816122b1565b92915050565b6000602082840312156122f3576122f261227b565b5b6000612301848285016122c8565b91505092915050565b60008115159050919050565b61231f8161230a565b82525050565b600060208201905061233a6000830184612316565b92915050565b600081519050919050565b600082825260208201905092915050565b60005b8381101561237a57808201518184015260208101905061235f565b60008484015250505050565b6000601f19601f8301169050919050565b60006123a282612340565b6123ac818561234b565b93506123bc81856020860161235c565b6123c581612386565b840191505092915050565b600060208201905081810360008301526123ea8184612397565b905092915050565b6000819050919050565b612405816123f2565b811461241057600080fd5b50565b600081359050612422816123fc565b92915050565b60006020828403121561243e5761243d61227b565b5b600061244c84828501612413565b91505092915050565b600073ffffffffffffffffffffffffffffffffffffffff82169050919050565b600061248082612455565b9050919050565b61249081612475565b82525050565b60006020820190506124ab6000830184612487565b92915050565b6124ba81612475565b81146124c557600080fd5b50565b6000813590506124d7816124b1565b92915050565b600080604083850312156124f4576124f361227b565b5b6000612502858286016124c8565b925050602061251385828601612413565b9150509250929050565b612526816123f2565b82525050565b6000602082019050612541600083018461251d565b92915050565b6000806000606084860312156125605761255f61227b565b5b600061256e868287016124c8565b935050602061257f868287016124c8565b925050604061259086828701612413565b9150509250925092565b600080fd5b600080fd5b7f4e487b7100000000000000000000000000000000000000000000000000000000600052604160045260246000fd5b6125dc82612386565b810181811067ffffffffffffffff821117156125fb576125fa6125a4565b5b80604052505050565b600061260e612271565b905061261a82826125d3565b919050565b600067ffffffffffffffff82111561263a576126396125a4565b5b61264382612386565b9050602081019050919050565b82818337600083830152505050565b600061267261266d8461261f565b612604565b90508281526020810184848401111561268e5761268d61259f565b5b612699848285612650565b509392505050565b600082601f8301126126b6576126b561259a565b5b81356126c684826020860161265f565b91505092915050565b6000602082840312156126e5576126e461227b565b5b600082013567ffffffffffffffff81111561270357612702612280565b5b61270f848285016126a1565b91505092915050565b60006020828403121561272e5761272d61227b565b5b600061273c848285016124c8565b91505092915050565b61274e8161230a565b811461275957600080fd5b50565b60008135905061276b81612745565b92915050565b600080604083850312156127885761278761227b565b5b6000612796858286016124c8565b92505060206127a78582860161275c565b9150509250929050565b600067ffffffffffffffff8211156127cc576127cb6125a4565b5b6127d582612386565b9050602081019050919050565b60006127f56127f0846127b1565b612604565b9050828152602081018484840111156128115761281061259f565b5b61281c848285612650565b509392505050565b600082601f8301126128395761283861259a565b5b81356128498482602086016127e2565b91505092915050565b6000806000806080858703121561286c5761286b61227b565b5b600061287a878288016124c8565b945050602061288b878288016124c8565b935050604061289c87828801612413565b925050606085013567ffffffffffffffff8111156128bd576128bc612280565b5b6128c987828801612824565b91505092959194509250565b600080604083850312156128ec576128eb61227b565b5b60006128fa858286016124c8565b925050602061290b858286016124c8565b9150509250929050565b7f4e487b7100000000000000000000000000000000000000000000000000000000600052602260045260246000fd5b6000600282049050600182168061295c57607f821691505b60208210810361296f5761296e612915565b5b50919050565b7f4552433732313a20617070726f76616c20746f2063757272656e74206f776e6560008201527f7200000000000000000000000000000000000000000000000000000000000000602082015250565b60006129d160218361234b565b91506129dc82612975565b604082019050919050565b60006020820190508181036000830152612a00816129c4565b9050919050565b7f4552433732313a20617070726f76652063616c6c6572206973206e6f7420746f60008201527f6b656e206f776e6572206f7220617070726f76656420666f7220616c6c000000602082015250565b6000612a63603d8361234b565b9150612a6e82612a07565b604082019050919050565b60006020820190508181036000830152612a9281612a56565b9050919050565b7f4552433732313a2063616c6c6572206973206e6f7420746f6b656e206f776e6560008201527f72206f7220617070726f76656400000000000000000000000000000000000000602082015250565b6000612af5602d8361234b565b9150612b0082612a99565b604082019050919050565b60006020820190508181036000830152612b2481612ae8565b9050919050565b7f455243373231456e756d657261626c653a206f776e657220696e646578206f7560008201527f74206f6620626f756e6473000000000000000000000000000000000000000000602082015250565b6000612b87602b8361234b565b9150612b9282612b2b565b604082019050919050565b60006020820190508181036000830152612bb681612b7a565b9050919050565b7f455243373231456e756d657261626c653a20676c6f62616c20696e646578206f60008201527f7574206f6620626f756e64730000000000000000000000000000000000000000602082015250565b6000612c19602c8361234b565b9150612c2482612bbd565b604082019050919050565b60006020820190508181036000830152612c4881612c0c565b9050919050565b7f4e487b7100000000000000000000000000000000000000000000000000000000600052603260045260246000fd5b7f4552433732313a20696e76616c696420746f6b656e2049440000000000000000600082015250565b6000612cb460188361234b565b9150612cbf82612c7e565b602082019050919050565b60006020820190508181036000830152612ce381612ca7565b9050919050565b7f4552433732313a2061646472657373207a65726f206973206e6f74206120766160008201527f6c6964206f776e65720000000000000000000000000000000000000000000000602082015250565b6000612d4660298361234b565b9150612d5182612cea565b604082019050919050565b60006020820190508181036000830152612d7581612d39565b9050919050565b7f4f776e61626c653a206e6577206f776e657220697320746865207a65726f206160008201527f6464726573730000000000000000000000000000000000000000000000000000602082015250565b6000612dd860268361234b565b9150612de382612d7c565b604082019050919050565b60006020820190508181036000830152612e0781612dcb565b9050919050565b7f4552433732313a207472616e736665722066726f6d20696e636f72726563742060008201527f6f776e6572000000000000000000000000000000000000000000000000000000602082015250565b6000612e6a60258361234b565b9150612e7582612e0e565b604082019050919050565b60006020820190508181036000830152612e9981612e5d565b9050919050565b7f4552433732313a207472616e7366657220746f20746865207a65726f2061646460008201527f7265737300000000000000000000000000000000000000000000000000000000602082015250565b6000612efc60248361234b565b9150612f0782612ea0565b604082019050919050565b60006020820190508181036000830152612f2b81612eef565b9050919050565b7f45524337323155524953746f726167653a2055524920736574206f66206e6f6e60008201527f6578697374656e7420746f6b656e000000000000000000000000000000000000602082015250565b6000612f8e602e8361234b565b9150612f9982612f32565b604082019050919050565b60006020820190508181036000830152612fbd81612f81565b9050919050565b60008190508160005260206000209050919050565b60006020601f8301049050919050565b600082821b905092915050565b6000600883026130267fffffffffffffffffffffffffffffffffffffffffffffffffffffffffffffffff82612fe9565b6130308683612fe9565b95508019841693508086168417925050509392505050565b6000819050919050565b600061306d613068613063846123f2565b613048565b6123f2565b9050919050565b6000819050919050565b61308783613052565b61309b61309382613074565b848454612ff6565b825550505050565b600090565b6130b06130a3565b6130bb81848461307e565b505050565b5b818110156130df576130d46000826130a8565b6001810190506130c1565b5050565b601f821115613124576130f581612fc4565b6130fe84612fd9565b8101602085101561310d578190505b61312161311985612fd9565b8301826130c0565b50505b505050565b600082821c905092915050565b600061314760001984600802613129565b1980831691505092915050565b60006131608383613136565b9150826002028217905092915050565b61317982612340565b67ffffffffffffffff811115613192576131916125a4565b5b61319c8254612944565b6131a78282856130e3565b600060209050601f8311600181146131da57600084156131c8578287015190505b6131d28582613154565b86555061323a565b601f1984166131e886612fc4565b60005b82811015613210578489015182556001820191506020850194506020810190506131eb565b8683101561322d5784890151613229601f891682613136565b8355505b6001600288020188555050505b505050505050565b7f4f776e61626c653a2063616c6c6572206973206e6f7420746865206f776e6572600082015250565b600061327860208361234b565b915061328382613242565b602082019050919050565b600060208201905081810360008301526132a78161326b565b9050919050565b7f4552433732313a20617070726f766520746f2063616c6c657200000000000000600082015250565b60006132e460198361234b565b91506132ef826132ae565b602082019050919050565b60006020820190508181036000830152613313816132d7565b9050919050565b7f4552433732313a207472616e7366657220746f206e6f6e20455243373231526560008201527f63656976657220696d706c656d656e7465720000000000000000000000000000602082015250565b600061337660328361234b565b91506133818261331a565b604082019050919050565b600060208201905081810360008301526133a581613369565b9050919050565b600081905092915050565b60006133c282612340565b6133cc81856133ac565b93506133dc81856020860161235c565b80840191505092915050565b60006133f482856133b7565b915061340082846133b7565b91508190509392505050565b600081519050919050565b600082825260208201905092915050565b60006134338261340c565b61343d8185613417565b935061344d81856020860161235c565b61345681612386565b840191505092915050565b60006080820190506134766000830187612487565b6134836020830186612487565b613490604083018561251d565b81810360608301526134a28184613428565b905095945050505050565b6000815190506134bc816122b1565b92915050565b6000602082840312156134d8576134d761227b565b5b60006134e6848285016134ad565b91505092915050565b7f455243373231456e756d657261626c653a20636f6e736563757469766520747260008201527f616e7366657273206e6f7420737570706f727465640000000000000000000000602082015250565b600061354b60358361234b565b9150613556826134ef565b604082019050919050565b6000602082019050818103600083015261357a8161353e565b9050919050565b7f4552433732313a206d696e7420746f20746865207a65726f2061646472657373600082015250565b60006135b760208361234b565b91506135c282613581565b602082019050919050565b600060208201905081810360008301526135e6816135aa565b9050919050565b7f4552433732313a20746f6b656e20616c7265616479206d696e74656400000000600082015250565b6000613623601c8361234b565b915061362e826135ed565b602082019050919050565b6000602082019050818103600083015261365281613616565b9050919050565b7f4e487b7100000000000000000000000000000000000000000000000000000000600052601260045260246000fd5b7f4e487b7100000000000000000000000000000000000000000000000000000000600052601160045260246000fd5b60006136c2826123f2565b91506136cd836123f2565b92508282039050818111156136e5576136e4613688565b5b92915050565b7f4e487b7100000000000000000000000000000000000000000000000000000000600052603160045260246000fdfe68747470733a2f2f676174657761792e70696e6174612e636c6f75642f697066732fa2646970667358221220fe98598b415503ef269ead64649fb9a6a92591e070b978fd746c481e65d88d6664736f6c63430008130033",
  "immutableReferences": {},
  "source": "// SPDX-License-Identifier: MIT\r\npragma solidity ^0.8.19;\r\n\r\nimport \"../node_modules/@openzeppelin/contracts/token/ERC721/extensions/ERC721Enumerable.sol\";\r\nimport \"../node_modules/@openzeppelin/contracts/token/ERC721/extensions/ERC721URIStorage.sol\";\r\nimport \"../node_modules/@openzeppelin/contracts/access/Ownable.sol\";\r\nimport \"../node_modules/@openzeppelin/contracts/utils/Counters.sol\";\r\n\r\ncontract CharacterToken is ERC721Enumerable, ERC721URIStorage, Ownable {\r\n  using Counters for Counters.Counter;\r\n  Counters.Counter private _tokenId;\r\n\r\n  constructor(\r\n    string memory _name,\r\n    string memory _symbol\r\n  ) ERC721(_name, _symbol) {}\r\n\r\n  function _beforeTokenTransfer(\r\n    address from,\r\n    address to,\r\n    uint256 firstTokenId,\r\n    uint256 batchSize\r\n  ) internal override(ERC721, ERC721Enumerable) {\r\n    super._beforeTokenTransfer(from, to, firstTokenId, batchSize);\r\n  }\r\n\r\n  function _burn(uint256 tokenId) internal override(ERC721, ERC721URIStorage) {\r\n    super._burn(tokenId);\r\n  }\r\n\r\n  function supportsInterface(\r\n    bytes4 interfaceId\r\n  ) public view override(ERC721, ERC721Enumerable) returns (bool) {\r\n    return super.supportsInterface(interfaceId);\r\n  }\r\n\r\n  function tokenURI(\r\n    uint256 tokenId\r\n  ) public view override(ERC721, ERC721URIStorage) returns (string memory) {\r\n    return super.tokenURI(tokenId);\r\n  }\r\n\r\n  function _baseURI() internal pure override returns (string memory) {\r\n    return \"https://gateway.pinata.cloud/ipfs/\";\r\n  }\r\n\r\n  function safeMint(string memory uri) public {\r\n    uint256 tokenId = _tokenId.current();\r\n    _tokenId.increment();\r\n    _safeMint(msg.sender, tokenId);\r\n    _setTokenURI(tokenId, uri);\r\n  }\r\n}\r\n",
  "sourcePath": "C:\\Users\\kawonlee\\Documents\\GitHub\\NFT-market-TeamProject\\back\\contracts\\CharacterToken.sol",
  "compiler": {
    "name": "solc",
    "version": "0.8.19+commit.7dd6d404.Emscripten.clang"
  },
  "schemaVersion": "3.4.13",
  "updatedAt": "2023-03-22T05:04:48.190Z",
  "devdoc": {
    "events": {
      "Approval(address,address,uint256)": {
        "details": "Emitted when `owner` enables `approved` to manage the `tokenId` token."
      },
      "ApprovalForAll(address,address,bool)": {
        "details": "Emitted when `owner` enables or disables (`approved`) `operator` to manage all of its assets."
      },
      "Transfer(address,address,uint256)": {
        "details": "Emitted when `tokenId` token is transferred from `from` to `to`."
      }
    },
    "kind": "dev",
    "methods": {
      "approve(address,uint256)": {
        "details": "See {IERC721-approve}."
      },
      "balanceOf(address)": {
        "details": "See {IERC721-balanceOf}."
      },
      "getApproved(uint256)": {
        "details": "See {IERC721-getApproved}."
      },
      "isApprovedForAll(address,address)": {
        "details": "See {IERC721-isApprovedForAll}."
      },
      "name()": {
        "details": "See {IERC721Metadata-name}."
      },
      "owner()": {
        "details": "Returns the address of the current owner."
      },
      "ownerOf(uint256)": {
        "details": "See {IERC721-ownerOf}."
      },
      "renounceOwnership()": {
        "details": "Leaves the contract without owner. It will not be possible to call `onlyOwner` functions anymore. Can only be called by the current owner. NOTE: Renouncing ownership will leave the contract without an owner, thereby removing any functionality that is only available to the owner."
      },
      "safeTransferFrom(address,address,uint256)": {
        "details": "See {IERC721-safeTransferFrom}."
      },
      "safeTransferFrom(address,address,uint256,bytes)": {
        "details": "See {IERC721-safeTransferFrom}."
      },
      "setApprovalForAll(address,bool)": {
        "details": "See {IERC721-setApprovalForAll}."
      },
      "symbol()": {
        "details": "See {IERC721Metadata-symbol}."
      },
      "tokenByIndex(uint256)": {
        "details": "See {IERC721Enumerable-tokenByIndex}."
      },
      "tokenOfOwnerByIndex(address,uint256)": {
        "details": "See {IERC721Enumerable-tokenOfOwnerByIndex}."
      },
      "totalSupply()": {
        "details": "See {IERC721Enumerable-totalSupply}."
      },
      "transferFrom(address,address,uint256)": {
        "details": "See {IERC721-transferFrom}."
      },
      "transferOwnership(address)": {
        "details": "Transfers ownership of the contract to a new account (`newOwner`). Can only be called by the current owner."
      }
    },
    "version": 1
  },
  "userdoc": {
    "kind": "user",
    "methods": {},
    "version": 1
  }
}