{
  "contractName": "SaleToken",
  "abi": [
    {
      "inputs": [
        {
          "internalType": "address",
          "name": "_tokenAddress",
          "type": "address"
        }
      ],
      "stateMutability": "nonpayable",
      "type": "constructor"
    },
    {
      "inputs": [
        {
          "internalType": "uint256",
          "name": "",
          "type": "uint256"
        }
      ],
      "name": "SaleTokenList",
      "outputs": [
        {
          "internalType": "uint256",
          "name": "",
          "type": "uint256"
        }
      ],
      "stateMutability": "view",
      "type": "function"
    },
    {
      "inputs": [],
      "name": "Token",
      "outputs": [
        {
          "internalType": "contract CharacterToken",
          "name": "",
          "type": "address"
        }
      ],
      "stateMutability": "view",
      "type": "function"
    },
    {
      "inputs": [
        {
          "internalType": "uint256",
          "name": "",
          "type": "uint256"
        }
      ],
      "name": "tokenPrices",
      "outputs": [
        {
          "internalType": "uint256",
          "name": "",
          "type": "uint256"
        }
      ],
      "stateMutability": "view",
      "type": "function"
    },
    {
      "inputs": [
        {
          "internalType": "uint256",
          "name": "_tokenId",
          "type": "uint256"
        },
        {
          "internalType": "uint256",
          "name": "_price",
          "type": "uint256"
        }
      ],
      "name": "SalesToken",
      "outputs": [],
      "stateMutability": "nonpayable",
      "type": "function"
    },
    {
      "inputs": [
        {
          "internalType": "uint256",
          "name": "_tokenId",
          "type": "uint256"
        }
      ],
      "name": "PurchaseToken",
      "outputs": [],
      "stateMutability": "payable",
      "type": "function"
    },
    {
      "inputs": [
        {
          "internalType": "uint256",
          "name": "_tokenId",
          "type": "uint256"
        }
      ],
      "name": "cancelSaleToken",
      "outputs": [],
      "stateMutability": "nonpayable",
      "type": "function"
    },
    {
      "inputs": [],
      "name": "getSaleTokenList",
      "outputs": [
        {
          "components": [
            {
              "internalType": "uint256",
              "name": "tokenId",
              "type": "uint256"
            },
            {
              "internalType": "uint256",
              "name": "price",
              "type": "uint256"
            },
            {
              "internalType": "string",
              "name": "tokenURI",
              "type": "string"
            }
          ],
          "internalType": "struct SaleToken.TokenInfo[]",
          "name": "",
          "type": "tuple[]"
        }
      ],
      "stateMutability": "view",
      "type": "function"
    },
    {
      "inputs": [
        {
          "internalType": "address",
          "name": "_tokenOwner",
          "type": "address"
        }
      ],
      "name": "getOwnerTokens",
      "outputs": [
        {
          "components": [
            {
              "internalType": "uint256",
              "name": "tokenId",
              "type": "uint256"
            },
            {
              "internalType": "uint256",
              "name": "price",
              "type": "uint256"
            },
            {
              "internalType": "string",
              "name": "tokenURI",
              "type": "string"
            }
          ],
          "internalType": "struct SaleToken.TokenInfo[]",
          "name": "",
          "type": "tuple[]"
        }
      ],
      "stateMutability": "view",
      "type": "function"
    },
    {
      "inputs": [
        {
          "internalType": "address",
          "name": "_tokenOwner",
          "type": "address"
        }
      ],
      "name": "getLatestToken",
      "outputs": [
        {
          "components": [
            {
              "internalType": "uint256",
              "name": "tokenId",
              "type": "uint256"
            },
            {
              "internalType": "uint256",
              "name": "price",
              "type": "uint256"
            },
            {
              "internalType": "string",
              "name": "tokenURI",
              "type": "string"
            }
          ],
          "internalType": "struct SaleToken.TokenInfo",
          "name": "",
          "type": "tuple"
        }
      ],
      "stateMutability": "view",
      "type": "function"
    }
  ],
  "bytecode": "0x60806040523480156200001157600080fd5b50604051620018f5380380620018f58339818101604052810190620000379190620000e8565b806000806101000a81548173ffffffffffffffffffffffffffffffffffffffff021916908373ffffffffffffffffffffffffffffffffffffffff160217905550506200011a565b600080fd5b600073ffffffffffffffffffffffffffffffffffffffff82169050919050565b6000620000b08262000083565b9050919050565b620000c281620000a3565b8114620000ce57600080fd5b50565b600081519050620000e281620000b7565b92915050565b6000602082840312156200010157620001006200007e565b5b60006200011184828501620000d1565b91505092915050565b6117cb806200012a6000396000f3fe6080604052600436106100865760003560e01c8063921e033b11610059578063921e033b14610138578063a4ad760b14610161578063c24126761461019e578063d63d4af0146101c9578063e5afe3e61461020657610086565b80630c8cc5691461008b5780631899ca99146100c85780633048f512146100f15780634e4dc9881461010d575b600080fd5b34801561009757600080fd5b506100b260048036038101906100ad9190610fa0565b610243565b6040516100bf9190610fdc565b60405180910390f35b3480156100d457600080fd5b506100ef60048036038101906100ea9190610fa0565b610267565b005b61010b60048036038101906101069190610fa0565b610385565b005b34801561011957600080fd5b50610122610599565b60405161012f91906111a8565b60405180910390f35b34801561014457600080fd5b5061015f600480360381019061015a91906111ca565b610750565b005b34801561016d57600080fd5b5061018860048036038101906101839190611268565b61091f565b60405161019591906112e5565b60405180910390f35b3480156101aa57600080fd5b506101b3610b55565b6040516101c09190611366565b60405180910390f35b3480156101d557600080fd5b506101f060048036038101906101eb9190611268565b610b79565b6040516101fd91906111a8565b60405180910390f35b34801561021257600080fd5b5061022d60048036038101906102289190610fa0565b610e41565b60405161023a9190610fdc565b60405180910390f35b6002818154811061025357600080fd5b906000526020600020016000915090505481565b60008060009054906101000a900473ffffffffffffffffffffffffffffffffffffffff1673ffffffffffffffffffffffffffffffffffffffff16636352211e836040518263ffffffff1660e01b81526004016102c39190610fdc565b602060405180830381865afa1580156102e0573d6000803e3d6000fd5b505050506040513d601f19601f820116820180604052508101906103049190611396565b90503373ffffffffffffffffffffffffffffffffffffffff168173ffffffffffffffffffffffffffffffffffffffff161461033e57600080fd5b600060016000848152602001908152602001600020541161035e57600080fd5b6000600160008481526020019081526020016000208190555061038082610e59565b505050565b60008060009054906101000a900473ffffffffffffffffffffffffffffffffffffffff1673ffffffffffffffffffffffffffffffffffffffff16636352211e836040518263ffffffff1660e01b81526004016103e19190610fdc565b602060405180830381865afa1580156103fe573d6000803e3d6000fd5b505050506040513d601f19601f820116820180604052508101906104229190611396565b90503373ffffffffffffffffffffffffffffffffffffffff168173ffffffffffffffffffffffffffffffffffffffff160361045c57600080fd5b600060016000848152602001908152602001600020541161047c57600080fd5b346001600084815260200190815260200160002054111561049c57600080fd5b8073ffffffffffffffffffffffffffffffffffffffff166108fc349081150290604051600060405180830381858888f193505050501580156104e2573d6000803e3d6000fd5b5060008054906101000a900473ffffffffffffffffffffffffffffffffffffffff1673ffffffffffffffffffffffffffffffffffffffff166323b872dd8233856040518463ffffffff1660e01b8152600401610540939291906113d2565b600060405180830381600087803b15801561055a57600080fd5b505af115801561056e573d6000803e3d6000fd5b505050506000600160008481526020019081526020016000208190555061059482610e59565b505050565b60606000600280549050116105ad57600080fd5b600060028054905067ffffffffffffffff8111156105ce576105cd611409565b5b60405190808252806020026020018201604052801561060757816020015b6105f4610f35565b8152602001906001900390816105ec5790505b50905060005b600280549050811015610748576000600282815481106106305761062f611438565b5b9060005260206000200154905060006001600083815260200190815260200160002054905060008060009054906101000a900473ffffffffffffffffffffffffffffffffffffffff1673ffffffffffffffffffffffffffffffffffffffff1663c87b56dd846040518263ffffffff1660e01b81526004016106b19190610fdc565b600060405180830381865afa1580156106ce573d6000803e3d6000fd5b505050506040513d6000823e3d601f19601f820116820180604052508101906106f7919061155e565b905060405180606001604052808481526020018381526020018281525085858151811061072757610726611438565b5b60200260200101819052505050508080610740906115d6565b91505061060d565b508091505090565b60008060009054906101000a900473ffffffffffffffffffffffffffffffffffffffff1673ffffffffffffffffffffffffffffffffffffffff16636352211e846040518263ffffffff1660e01b81526004016107ac9190610fdc565b602060405180830381865afa1580156107c9573d6000803e3d6000fd5b505050506040513d601f19601f820116820180604052508101906107ed9190611396565b90503373ffffffffffffffffffffffffffffffffffffffff168173ffffffffffffffffffffffffffffffffffffffff161461082757600080fd5b6000821161083457600080fd5b60008054906101000a900473ffffffffffffffffffffffffffffffffffffffff1673ffffffffffffffffffffffffffffffffffffffff1663e985e9c533306040518363ffffffff1660e01b815260040161088f92919061161e565b602060405180830381865afa1580156108ac573d6000803e3d6000fd5b505050506040513d601f19601f820116820180604052508101906108d0919061167f565b6108d957600080fd5b8160016000858152602001908152602001600020819055506002839080600181540180825580915050600190039060005260206000200160009091909190915055505050565b610927610f35565b60008060009054906101000a900473ffffffffffffffffffffffffffffffffffffffff1673ffffffffffffffffffffffffffffffffffffffff166370a08231846040518263ffffffff1660e01b815260040161098391906116ac565b602060405180830381865afa1580156109a0573d6000803e3d6000fd5b505050506040513d601f19601f820116820180604052508101906109c491906116dc565b905060008060009054906101000a900473ffffffffffffffffffffffffffffffffffffffff1673ffffffffffffffffffffffffffffffffffffffff16632f745c5985600185610a139190611709565b6040518363ffffffff1660e01b8152600401610a3092919061173d565b602060405180830381865afa158015610a4d573d6000803e3d6000fd5b505050506040513d601f19601f82011682018060405250810190610a7191906116dc565b905060006001600083815260200190815260200160002054905060008060009054906101000a900473ffffffffffffffffffffffffffffffffffffffff1673ffffffffffffffffffffffffffffffffffffffff1663c87b56dd846040518263ffffffff1660e01b8152600401610ae79190610fdc565b600060405180830381865afa158015610b04573d6000803e3d6000fd5b505050506040513d6000823e3d601f19601f82011682018060405250810190610b2d919061155e565b9050604051806060016040528084815260200183815260200182815250945050505050919050565b60008054906101000a900473ffffffffffffffffffffffffffffffffffffffff1681565b606060008060009054906101000a900473ffffffffffffffffffffffffffffffffffffffff1673ffffffffffffffffffffffffffffffffffffffff166370a08231846040518263ffffffff1660e01b8152600401610bd791906116ac565b602060405180830381865afa158015610bf4573d6000803e3d6000fd5b505050506040513d601f19601f82011682018060405250810190610c1891906116dc565b905060008111610c2757600080fd5b60008167ffffffffffffffff811115610c4357610c42611409565b5b604051908082528060200260200182016040528015610c7c57816020015b610c69610f35565b815260200190600190039081610c615790505b50905060005b82811015610e365760008060009054906101000a900473ffffffffffffffffffffffffffffffffffffffff1673ffffffffffffffffffffffffffffffffffffffff16632f745c5987846040518363ffffffff1660e01b8152600401610ce892919061173d565b602060405180830381865afa158015610d05573d6000803e3d6000fd5b505050506040513d601f19601f82011682018060405250810190610d2991906116dc565b905060006001600083815260200190815260200160002054905060008060009054906101000a900473ffffffffffffffffffffffffffffffffffffffff1673ffffffffffffffffffffffffffffffffffffffff1663c87b56dd846040518263ffffffff1660e01b8152600401610d9f9190610fdc565b600060405180830381865afa158015610dbc573d6000803e3d6000fd5b505050506040513d6000823e3d601f19601f82011682018060405250810190610de5919061155e565b9050604051806060016040528084815260200183815260200182815250858581518110610e1557610e14611438565b5b60200260200101819052505050508080610e2e906115d6565b915050610c82565b508092505050919050565b60016020528060005260406000206000915090505481565b600080600090505b600280549050811015610f2a578260028281548110610e8357610e82611438565b5b906000526020600020015403610f175760026001600280549050610ea79190611709565b81548110610eb857610eb7611438565b5b906000526020600020015460028281548110610ed757610ed6611438565b5b90600052602060002001819055506002805480610ef757610ef6611766565b5b600190038181906000526020600020016000905590556001915050610f30565b8080610f22906115d6565b915050610e61565b50600090505b919050565b60405180606001604052806000815260200160008152602001606081525090565b6000604051905090565b600080fd5b600080fd5b6000819050919050565b610f7d81610f6a565b8114610f8857600080fd5b50565b600081359050610f9a81610f74565b92915050565b600060208284031215610fb657610fb5610f60565b5b6000610fc484828501610f8b565b91505092915050565b610fd681610f6a565b82525050565b6000602082019050610ff16000830184610fcd565b92915050565b600081519050919050565b600082825260208201905092915050565b6000819050602082019050919050565b61102c81610f6a565b82525050565b600081519050919050565b600082825260208201905092915050565b60005b8381101561106c578082015181840152602081019050611051565b60008484015250505050565b6000601f19601f8301169050919050565b600061109482611032565b61109e818561103d565b93506110ae81856020860161104e565b6110b781611078565b840191505092915050565b60006060830160008301516110da6000860182611023565b5060208301516110ed6020860182611023565b50604083015184820360408601526111058282611089565b9150508091505092915050565b600061111e83836110c2565b905092915050565b6000602082019050919050565b600061113e82610ff7565b6111488185611002565b93508360208202850161115a85611013565b8060005b8581101561119657848403895281516111778582611112565b945061118283611126565b925060208a0199505060018101905061115e565b50829750879550505050505092915050565b600060208201905081810360008301526111c28184611133565b905092915050565b600080604083850312156111e1576111e0610f60565b5b60006111ef85828601610f8b565b925050602061120085828601610f8b565b9150509250929050565b600073ffffffffffffffffffffffffffffffffffffffff82169050919050565b60006112358261120a565b9050919050565b6112458161122a565b811461125057600080fd5b50565b6000813590506112628161123c565b92915050565b60006020828403121561127e5761127d610f60565b5b600061128c84828501611253565b91505092915050565b60006060830160008301516112ad6000860182611023565b5060208301516112c06020860182611023565b50604083015184820360408601526112d88282611089565b9150508091505092915050565b600060208201905081810360008301526112ff8184611295565b905092915050565b6000819050919050565b600061132c6113276113228461120a565b611307565b61120a565b9050919050565b600061133e82611311565b9050919050565b600061135082611333565b9050919050565b61136081611345565b82525050565b600060208201905061137b6000830184611357565b92915050565b6000815190506113908161123c565b92915050565b6000602082840312156113ac576113ab610f60565b5b60006113ba84828501611381565b91505092915050565b6113cc8161122a565b82525050565b60006060820190506113e760008301866113c3565b6113f460208301856113c3565b6114016040830184610fcd565b949350505050565b7f4e487b7100000000000000000000000000000000000000000000000000000000600052604160045260246000fd5b7f4e487b7100000000000000000000000000000000000000000000000000000000600052603260045260246000fd5b600080fd5b600080fd5b61147a82611078565b810181811067ffffffffffffffff8211171561149957611498611409565b5b80604052505050565b60006114ac610f56565b90506114b88282611471565b919050565b600067ffffffffffffffff8211156114d8576114d7611409565b5b6114e182611078565b9050602081019050919050565b60006115016114fc846114bd565b6114a2565b90508281526020810184848401111561151d5761151c61146c565b5b61152884828561104e565b509392505050565b600082601f83011261154557611544611467565b5b81516115558482602086016114ee565b91505092915050565b60006020828403121561157457611573610f60565b5b600082015167ffffffffffffffff81111561159257611591610f65565b5b61159e84828501611530565b91505092915050565b7f4e487b7100000000000000000000000000000000000000000000000000000000600052601160045260246000fd5b60006115e182610f6a565b91507fffffffffffffffffffffffffffffffffffffffffffffffffffffffffffffffff8203611613576116126115a7565b5b600182019050919050565b600060408201905061163360008301856113c3565b61164060208301846113c3565b9392505050565b60008115159050919050565b61165c81611647565b811461166757600080fd5b50565b60008151905061167981611653565b92915050565b60006020828403121561169557611694610f60565b5b60006116a38482850161166a565b91505092915050565b60006020820190506116c160008301846113c3565b92915050565b6000815190506116d681610f74565b92915050565b6000602082840312156116f2576116f1610f60565b5b6000611700848285016116c7565b91505092915050565b600061171482610f6a565b915061171f83610f6a565b9250828203905081811115611737576117366115a7565b5b92915050565b600060408201905061175260008301856113c3565b61175f6020830184610fcd565b9392505050565b7f4e487b7100000000000000000000000000000000000000000000000000000000600052603160045260246000fdfea26469706673582212203f3eadfca32c2738f7e07c196aa70317db9248ed43a6b61cd119b3031be013e264736f6c63430008130033",
  "immutableReferences": {},
  "source": "// SPDX-License-Identifier: MIT\r\npragma solidity ^0.8.19;\r\n\r\nimport \"./CharacterToken.sol\";\r\n\r\ncontract SaleToken {\r\n  CharacterToken public Token;\r\n\r\n  // _tokenAddress => characterToken CA : 0xd9145CCE52D386f254917e481eB44e9943F39138\r\n  constructor(address _tokenAddress) {\r\n    Token = CharacterToken(_tokenAddress);\r\n  }\r\n\r\n  struct TokenInfo {\r\n    uint tokenId;\r\n    uint price;\r\n    string tokenURI;\r\n  }\r\n\r\n  mapping(uint => uint) public tokenPrices;\r\n  // uint => uint =  => \r\n  uint[] public SaleTokenList;\r\n\r\n  // push   \r\n\r\n  function SalesToken(uint _tokenId, uint _price) public {\r\n    address tokenOwner = Token.ownerOf(_tokenId);\r\n\r\n    require(tokenOwner == msg.sender);\r\n    require(_price > 0);\r\n    require(Token.isApprovedForAll(msg.sender, address(this)));\r\n\r\n    tokenPrices[_tokenId] = _price;\r\n    //tokenPrices _tokenId   _price.    mapping uint => uint _tokenId _price   uint256\r\n    SaleTokenList.push(_tokenId);\r\n  }\r\n\r\n  function PurchaseToken(uint _tokenId) public payable {\r\n    address tokenOwner = Token.ownerOf(_tokenId);\r\n\r\n    require(tokenOwner != msg.sender);\r\n    require(tokenPrices[_tokenId] > 0);\r\n    require(tokenPrices[_tokenId] <= msg.value);\r\n\r\n    payable(tokenOwner).transfer(msg.value);\r\n    Token.transferFrom(tokenOwner, msg.sender, _tokenId);\r\n\r\n    tokenPrices[_tokenId] = 0;\r\n    popSaleToken(_tokenId);\r\n  }\r\n\r\n  function cancelSaleToken(uint _tokenId) public {\r\n    address tokenOwner = Token.ownerOf(_tokenId);\r\n\r\n    require(tokenOwner == msg.sender);\r\n    require(tokenPrices[_tokenId] > 0);\r\n\r\n    tokenPrices[_tokenId] = 0;\r\n    popSaleToken(_tokenId);\r\n  }\r\n\r\n  function popSaleToken(uint _tokenId) private returns (bool) {\r\n    for (uint i = 0; i < SaleTokenList.length; i++) {\r\n      if (SaleTokenList[i] == _tokenId) {\r\n        SaleTokenList[i] = SaleTokenList[SaleTokenList.length - 1];\r\n        SaleTokenList.pop();\r\n        return true;\r\n      }\r\n    }\r\n    return false;\r\n  }\r\n\r\n  function getSaleTokenList() public view returns (TokenInfo[] memory) {\r\n    require(SaleTokenList.length > 0);\r\n\r\n    TokenInfo[] memory list = new TokenInfo[](SaleTokenList.length);\r\n\r\n    for (uint i = 0; i < SaleTokenList.length; i++) {\r\n      uint tokenId = SaleTokenList[i];\r\n      uint price = tokenPrices[tokenId];\r\n      string memory tokenURI = Token.tokenURI(tokenId);\r\n\r\n      list[i] = TokenInfo(tokenId, price, tokenURI);\r\n    }\r\n    return list;\r\n  }\r\n\r\n  function getOwnerTokens(\r\n    address _tokenOwner\r\n  ) public view returns (TokenInfo[] memory) {\r\n    uint balance = Token.balanceOf(_tokenOwner);\r\n    require(balance > 0);\r\n\r\n    TokenInfo[] memory list = new TokenInfo[](balance);\r\n\r\n    for (uint i = 0; i < balance; i++) {\r\n      uint tokenId = Token.tokenOfOwnerByIndex(_tokenOwner, i);\r\n      uint price = tokenPrices[tokenId];\r\n      string memory tokenURI = Token.tokenURI(tokenId);\r\n\r\n      list[i] = TokenInfo(tokenId, price, tokenURI);\r\n    }\r\n    return list;\r\n  }\r\n\r\n  function getLatestToken(\r\n    address _tokenOwner\r\n  ) public view returns (TokenInfo memory) {\r\n    uint balance = Token.balanceOf(_tokenOwner);\r\n    uint tokenId = Token.tokenOfOwnerByIndex(_tokenOwner, balance - 1);\r\n    uint price = tokenPrices[tokenId];\r\n    string memory tokenURI = Token.tokenURI(tokenId);\r\n\r\n    return TokenInfo(tokenId, price, tokenURI);\r\n  }\r\n}\r\n",
  "sourcePath": "C:\\Users\\kawonlee\\Documents\\GitHub\\NFT-market-TeamProject\\back\\contracts\\SaleToken.sol",
  "compiler": {
    "name": "solc",
    "version": "0.8.19+commit.7dd6d404.Emscripten.clang"
  },
  "schemaVersion": "3.4.13",
  "updatedAt": "2023-03-22T05:04:48.204Z",
  "devdoc": {
    "kind": "dev",
    "methods": {},
    "version": 1
  },
  "userdoc": {
    "kind": "user",
    "methods": {},
    "version": 1
  }
}