{
  "contractName": "Swap",
  "abi": [
    {
      "inputs": [
        {
          "internalType": "contract TrioToken",
          "name": "_token",
          "type": "address"
        }
      ],
      "stateMutability": "nonpayable",
      "type": "constructor"
    },
    {
      "inputs": [],
      "name": "owner",
      "outputs": [
        {
          "internalType": "address",
          "name": "",
          "type": "address"
        }
      ],
      "stateMutability": "view",
      "type": "function"
    },
    {
      "inputs": [],
      "name": "token",
      "outputs": [
        {
          "internalType": "contract TrioToken",
          "name": "",
          "type": "address"
        }
      ],
      "stateMutability": "view",
      "type": "function"
    },
    {
      "inputs": [],
      "name": "getToken",
      "outputs": [
        {
          "internalType": "address",
          "name": "",
          "type": "address"
        }
      ],
      "stateMutability": "view",
      "type": "function"
    },
    {
      "inputs": [],
      "name": "getSwapBalance",
      "outputs": [
        {
          "internalType": "uint256",
          "name": "",
          "type": "uint256"
        }
      ],
      "stateMutability": "view",
      "type": "function"
    },
    {
      "inputs": [],
      "name": "getThisAddress",
      "outputs": [
        {
          "internalType": "address",
          "name": "",
          "type": "address"
        }
      ],
      "stateMutability": "view",
      "type": "function"
    },
    {
      "inputs": [],
      "name": "getMsgSender",
      "outputs": [
        {
          "internalType": "address",
          "name": "",
          "type": "address"
        }
      ],
      "stateMutability": "view",
      "type": "function"
    },
    {
      "inputs": [],
      "name": "buyToken",
      "outputs": [],
      "stateMutability": "payable",
      "type": "function"
    }
  ],
  "bytecode": "0x608060405234801561001057600080fd5b506040516109473803806109478339818101604052810190610032919061012e565b806000806101000a81548173ffffffffffffffffffffffffffffffffffffffff021916908373ffffffffffffffffffffffffffffffffffffffff16021790555033600160006101000a81548173ffffffffffffffffffffffffffffffffffffffff021916908373ffffffffffffffffffffffffffffffffffffffff1602179055505061015b565b600080fd5b600073ffffffffffffffffffffffffffffffffffffffff82169050919050565b60006100e9826100be565b9050919050565b60006100fb826100de565b9050919050565b61010b816100f0565b811461011657600080fd5b50565b60008151905061012881610102565b92915050565b600060208284031215610144576101436100b9565b5b600061015284828501610119565b91505092915050565b6107dd8061016a6000396000f3fe6080604052600436106100705760003560e01c8063a48217191161004e578063a4821719146100f6578063c7b00aad14610100578063d39538221461012b578063fc0c546a1461015657610070565b806321df0da7146100755780637a6ce2e1146100a05780638da5cb5b146100cb575b600080fd5b34801561008157600080fd5b5061008a610181565b6040516100979190610504565b60405180910390f35b3480156100ac57600080fd5b506100b56101aa565b6040516100c29190610504565b60405180910390f35b3480156100d757600080fd5b506100e06101b2565b6040516100ed9190610504565b60405180910390f35b6100fe6101d8565b005b34801561010c57600080fd5b506101156103f5565b6040516101229190610538565b60405180910390f35b34801561013757600080fd5b50610140610497565b60405161014d9190610504565b60405180910390f35b34801561016257600080fd5b5061016b61049f565b60405161017891906105b2565b60405180910390f35b60008060009054906101000a900473ffffffffffffffffffffffffffffffffffffffff16905090565b600033905090565b600160009054906101000a900473ffffffffffffffffffffffffffffffffffffffff1681565b60008060009054906101000a900473ffffffffffffffffffffffffffffffffffffffff1673ffffffffffffffffffffffffffffffffffffffff1663679aefce6040518163ffffffff1660e01b8152600401602060405180830381865afa158015610246573d6000803e3d6000fd5b505050506040513d601f19601f8201168201806040525081019061026a91906105fe565b34610275919061065a565b90508060008054906101000a900473ffffffffffffffffffffffffffffffffffffffff1673ffffffffffffffffffffffffffffffffffffffff166370a08231306040518263ffffffff1660e01b81526004016102d19190610504565b602060405180830381865afa1580156102ee573d6000803e3d6000fd5b505050506040513d601f19601f8201168201806040525081019061031291906105fe565b1015610353576040517f08c379a000000000000000000000000000000000000000000000000000000000815260040161034a906106f9565b60405180910390fd5b60008054906101000a900473ffffffffffffffffffffffffffffffffffffffff1673ffffffffffffffffffffffffffffffffffffffff1663a9059cbb33836040518363ffffffff1660e01b81526004016103ae929190610719565b6020604051808303816000875af11580156103cd573d6000803e3d6000fd5b505050506040513d601f19601f820116820180604052508101906103f1919061077a565b5050565b60008060009054906101000a900473ffffffffffffffffffffffffffffffffffffffff1673ffffffffffffffffffffffffffffffffffffffff166370a08231336040518263ffffffff1660e01b81526004016104519190610504565b602060405180830381865afa15801561046e573d6000803e3d6000fd5b505050506040513d601f19601f8201168201806040525081019061049291906105fe565b905090565b600030905090565b60008054906101000a900473ffffffffffffffffffffffffffffffffffffffff1681565b600073ffffffffffffffffffffffffffffffffffffffff82169050919050565b60006104ee826104c3565b9050919050565b6104fe816104e3565b82525050565b600060208201905061051960008301846104f5565b92915050565b6000819050919050565b6105328161051f565b82525050565b600060208201905061054d6000830184610529565b92915050565b6000819050919050565b600061057861057361056e846104c3565b610553565b6104c3565b9050919050565b600061058a8261055d565b9050919050565b600061059c8261057f565b9050919050565b6105ac81610591565b82525050565b60006020820190506105c760008301846105a3565b92915050565b600080fd5b6105db8161051f565b81146105e657600080fd5b50565b6000815190506105f8816105d2565b92915050565b600060208284031215610614576106136105cd565b5b6000610622848285016105e9565b91505092915050565b7f4e487b7100000000000000000000000000000000000000000000000000000000600052601160045260246000fd5b60006106658261051f565b91506106708361051f565b925082820261067e8161051f565b915082820484148315176106955761069461062b565b5b5092915050565b600082825260208201905092915050565b7f6572726f72205b315d0000000000000000000000000000000000000000000000600082015250565b60006106e360098361069c565b91506106ee826106ad565b602082019050919050565b60006020820190508181036000830152610712816106d6565b9050919050565b600060408201905061072e60008301856104f5565b61073b6020830184610529565b9392505050565b60008115159050919050565b61075781610742565b811461076257600080fd5b50565b6000815190506107748161074e565b92915050565b6000602082840312156107905761078f6105cd565b5b600061079e84828501610765565b9150509291505056fea26469706673582212206f3621428470fef168b1b2f3c52ecebe138d0f05683e097117b2f21cc5aab79064736f6c63430008130033",
  "immutableReferences": {},
  "source": "// SPDX-License-Identifier: MIT\r\npragma solidity ^0.8.19;\r\n\r\nimport \"./TrioToken.sol\";\r\n\r\ncontract Swap {\r\n  TrioToken public token; // CA  \r\n  address public owner;\r\n\r\n  constructor(TrioToken _token) {\r\n    token = _token; // _token CA  token \r\n    owner = msg.sender;\r\n  }\r\n\r\n  function getToken() public view returns (address) {\r\n    return address(token); //  TrioToken   CA\r\n  }\r\n\r\n  // token  CA return \r\n\r\n  function getSwapBalance() public view returns (uint) {\r\n    return token.balanceOf(msg.sender);\r\n  }\r\n\r\n  //       \r\n\r\n  function getThisAddress() public view returns (address) {\r\n    return address(this); // this    (this = Swap)\r\n    // address(this) == Swap CA\r\n  }\r\n\r\n  function getMsgSender() public view returns (address) {\r\n    return msg.sender; // msg.sender ==  (Swap)  \r\n  }\r\n\r\n  // function getTokenOwner() public view returns (address) {\r\n  //     return token._owner();\r\n  // }\r\n  //  ERC20 (TrioToken)     return \r\n\r\n  function buyToken() public payable {\r\n    uint256 tokenAmount = msg.value * token.getRate(); // 1eth = 500token\r\n    require(token.balanceOf(address(this)) >= tokenAmount, \"error [1]\");\r\n    token.transfer(msg.sender, tokenAmount); // from: Swap CA, to : msg.sender\r\n  }\r\n}\r\n",
  "sourcePath": "C:\\Users\\kawonlee\\Documents\\GitHub\\NFT-market-TeamProject\\back\\contracts\\Swap.sol",
  "compiler": {
    "name": "solc",
    "version": "0.8.19+commit.7dd6d404.Emscripten.clang"
  },
  "schemaVersion": "3.4.13",
  "updatedAt": "2023-03-22T05:04:48.210Z",
  "devdoc": {
    "kind": "dev",
    "methods": {},
    "version": 1
  },
  "userdoc": {
    "kind": "user",
    "methods": {},
    "version": 1
  }
}