{
  "contractName": "TrioToken",
  "abi": [
    {
      "inputs": [
        {
          "internalType": "string",
          "name": "_name",
          "type": "string"
        },
        {
          "internalType": "string",
          "name": "_symbol",
          "type": "string"
        },
        {
          "internalType": "uint256",
          "name": "_amount",
          "type": "uint256"
        }
      ],
      "stateMutability": "nonpayable",
      "type": "constructor"
    },
    {
      "anonymous": false,
      "inputs": [
        {
          "indexed": true,
          "internalType": "address",
          "name": "owner",
          "type": "address"
        },
        {
          "indexed": true,
          "internalType": "address",
          "name": "spender",
          "type": "address"
        },
        {
          "indexed": false,
          "internalType": "uint256",
          "name": "value",
          "type": "uint256"
        }
      ],
      "name": "Approval",
      "type": "event"
    },
    {
      "anonymous": false,
      "inputs": [
        {
          "indexed": true,
          "internalType": "address",
          "name": "from",
          "type": "address"
        },
        {
          "indexed": true,
          "internalType": "address",
          "name": "to",
          "type": "address"
        },
        {
          "indexed": false,
          "internalType": "uint256",
          "name": "value",
          "type": "uint256"
        }
      ],
      "name": "Transfer",
      "type": "event"
    },
    {
      "inputs": [
        {
          "internalType": "address",
          "name": "owner",
          "type": "address"
        },
        {
          "internalType": "address",
          "name": "spender",
          "type": "address"
        }
      ],
      "name": "allowance",
      "outputs": [
        {
          "internalType": "uint256",
          "name": "",
          "type": "uint256"
        }
      ],
      "stateMutability": "view",
      "type": "function"
    },
    {
      "inputs": [
        {
          "internalType": "address",
          "name": "spender",
          "type": "address"
        },
        {
          "internalType": "uint256",
          "name": "amount",
          "type": "uint256"
        }
      ],
      "name": "approve",
      "outputs": [
        {
          "internalType": "bool",
          "name": "",
          "type": "bool"
        }
      ],
      "stateMutability": "nonpayable",
      "type": "function"
    },
    {
      "inputs": [
        {
          "internalType": "address",
          "name": "account",
          "type": "address"
        }
      ],
      "name": "balanceOf",
      "outputs": [
        {
          "internalType": "uint256",
          "name": "",
          "type": "uint256"
        }
      ],
      "stateMutability": "view",
      "type": "function"
    },
    {
      "inputs": [],
      "name": "decimals",
      "outputs": [
        {
          "internalType": "uint8",
          "name": "",
          "type": "uint8"
        }
      ],
      "stateMutability": "view",
      "type": "function"
    },
    {
      "inputs": [
        {
          "internalType": "address",
          "name": "spender",
          "type": "address"
        },
        {
          "internalType": "uint256",
          "name": "subtractedValue",
          "type": "uint256"
        }
      ],
      "name": "decreaseAllowance",
      "outputs": [
        {
          "internalType": "bool",
          "name": "",
          "type": "bool"
        }
      ],
      "stateMutability": "nonpayable",
      "type": "function"
    },
    {
      "inputs": [
        {
          "internalType": "address",
          "name": "spender",
          "type": "address"
        },
        {
          "internalType": "uint256",
          "name": "addedValue",
          "type": "uint256"
        }
      ],
      "name": "increaseAllowance",
      "outputs": [
        {
          "internalType": "bool",
          "name": "",
          "type": "bool"
        }
      ],
      "stateMutability": "nonpayable",
      "type": "function"
    },
    {
      "inputs": [],
      "name": "name",
      "outputs": [
        {
          "internalType": "string",
          "name": "",
          "type": "string"
        }
      ],
      "stateMutability": "view",
      "type": "function"
    },
    {
      "inputs": [],
      "name": "owner",
      "outputs": [
        {
          "internalType": "address",
          "name": "",
          "type": "address"
        }
      ],
      "stateMutability": "view",
      "type": "function"
    },
    {
      "inputs": [],
      "name": "rate",
      "outputs": [
        {
          "internalType": "uint256",
          "name": "",
          "type": "uint256"
        }
      ],
      "stateMutability": "view",
      "type": "function"
    },
    {
      "inputs": [],
      "name": "symbol",
      "outputs": [
        {
          "internalType": "string",
          "name": "",
          "type": "string"
        }
      ],
      "stateMutability": "view",
      "type": "function"
    },
    {
      "inputs": [],
      "name": "totalSupply",
      "outputs": [
        {
          "internalType": "uint256",
          "name": "",
          "type": "uint256"
        }
      ],
      "stateMutability": "view",
      "type": "function"
    },
    {
      "inputs": [
        {
          "internalType": "address",
          "name": "to",
          "type": "address"
        },
        {
          "internalType": "uint256",
          "name": "amount",
          "type": "uint256"
        }
      ],
      "name": "transfer",
      "outputs": [
        {
          "internalType": "bool",
          "name": "",
          "type": "bool"
        }
      ],
      "stateMutability": "nonpayable",
      "type": "function"
    },
    {
      "inputs": [
        {
          "internalType": "address",
          "name": "from",
          "type": "address"
        },
        {
          "internalType": "address",
          "name": "to",
          "type": "address"
        },
        {
          "internalType": "uint256",
          "name": "amount",
          "type": "uint256"
        }
      ],
      "name": "transferFrom",
      "outputs": [
        {
          "internalType": "bool",
          "name": "",
          "type": "bool"
        }
      ],
      "stateMutability": "nonpayable",
      "type": "function"
    },
    {
      "stateMutability": "payable",
      "type": "receive"
    },
    {
      "inputs": [
        {
          "internalType": "uint256",
          "name": "_amount",
          "type": "uint256"
        }
      ],
      "name": "mint",
      "outputs": [],
      "stateMutability": "nonpayable",
      "type": "function"
    },
    {
      "inputs": [],
      "name": "getRate",
      "outputs": [
        {
          "internalType": "uint256",
          "name": "",
          "type": "uint256"
        }
      ],
      "stateMutability": "view",
      "type": "function"
    }
  ],
  "bytecode": "0x60806040526101f46006553480156200001757600080fd5b506040516200208c3803806200208c83398181016040528101906200003d91906200043d565b8282816003908162000050919062000718565b50806004908162000062919062000718565b50505033600560006101000a81548173ffffffffffffffffffffffffffffffffffffffff021916908373ffffffffffffffffffffffffffffffffffffffff160217905550620000ef600560009054906101000a900473ffffffffffffffffffffffffffffffffffffffff16670de0b6b3a764000083620000e391906200082e565b620000f860201b60201c565b50505062000965565b600073ffffffffffffffffffffffffffffffffffffffff168273ffffffffffffffffffffffffffffffffffffffff16036200016a576040517f08c379a00000000000000000000000000000000000000000000000000000000081526004016200016190620008da565b60405180910390fd5b6200017e600083836200026560201b60201c565b8060026000828254620001929190620008fc565b92505081905550806000808473ffffffffffffffffffffffffffffffffffffffff1673ffffffffffffffffffffffffffffffffffffffff168152602001908152602001600020600082825401925050819055508173ffffffffffffffffffffffffffffffffffffffff16600073ffffffffffffffffffffffffffffffffffffffff167fddf252ad1be2c89b69c2b068fc378daa952ba7f163c4a11628f55a4df523b3ef8360405162000245919062000948565b60405180910390a362000261600083836200026a60201b60201c565b5050565b505050565b505050565b6000604051905090565b600080fd5b600080fd5b600080fd5b600080fd5b6000601f19601f8301169050919050565b7f4e487b7100000000000000000000000000000000000000000000000000000000600052604160045260246000fd5b620002d8826200028d565b810181811067ffffffffffffffff82111715620002fa57620002f96200029e565b5b80604052505050565b60006200030f6200026f565b90506200031d8282620002cd565b919050565b600067ffffffffffffffff82111562000340576200033f6200029e565b5b6200034b826200028d565b9050602081019050919050565b60005b83811015620003785780820151818401526020810190506200035b565b60008484015250505050565b60006200039b620003958462000322565b62000303565b905082815260208101848484011115620003ba57620003b962000288565b5b620003c784828562000358565b509392505050565b600082601f830112620003e757620003e662000283565b5b8151620003f984826020860162000384565b91505092915050565b6000819050919050565b620004178162000402565b81146200042357600080fd5b50565b60008151905062000437816200040c565b92915050565b60008060006060848603121562000459576200045862000279565b5b600084015167ffffffffffffffff8111156200047a57620004796200027e565b5b6200048886828701620003cf565b935050602084015167ffffffffffffffff811115620004ac57620004ab6200027e565b5b620004ba86828701620003cf565b9250506040620004cd8682870162000426565b9150509250925092565b600081519050919050565b7f4e487b7100000000000000000000000000000000000000000000000000000000600052602260045260246000fd5b600060028204905060018216806200052a57607f821691505b60208210810362000540576200053f620004e2565b5b50919050565b60008190508160005260206000209050919050565b60006020601f8301049050919050565b600082821b905092915050565b600060088302620005aa7fffffffffffffffffffffffffffffffffffffffffffffffffffffffffffffffff826200056b565b620005b686836200056b565b95508019841693508086168417925050509392505050565b6000819050919050565b6000620005f9620005f3620005ed8462000402565b620005ce565b62000402565b9050919050565b6000819050919050565b6200061583620005d8565b6200062d620006248262000600565b84845462000578565b825550505050565b600090565b6200064462000635565b620006518184846200060a565b505050565b5b8181101562000679576200066d6000826200063a565b60018101905062000657565b5050565b601f821115620006c857620006928162000546565b6200069d846200055b565b81016020851015620006ad578190505b620006c5620006bc856200055b565b83018262000656565b50505b505050565b600082821c905092915050565b6000620006ed60001984600802620006cd565b1980831691505092915050565b6000620007088383620006da565b9150826002028217905092915050565b6200072382620004d7565b67ffffffffffffffff8111156200073f576200073e6200029e565b5b6200074b825462000511565b620007588282856200067d565b600060209050601f8311600181146200079057600084156200077b578287015190505b620007878582620006fa565b865550620007f7565b601f198416620007a08662000546565b60005b82811015620007ca57848901518255600182019150602085019450602081019050620007a3565b86831015620007ea5784890151620007e6601f891682620006da565b8355505b6001600288020188555050505b505050505050565b7f4e487b7100000000000000000000000000000000000000000000000000000000600052601160045260246000fd5b60006200083b8262000402565b9150620008488362000402565b9250828202620008588162000402565b91508282048414831517620008725762000871620007ff565b5b5092915050565b600082825260208201905092915050565b7f45524332303a206d696e7420746f20746865207a65726f206164647265737300600082015250565b6000620008c2601f8362000879565b9150620008cf826200088a565b602082019050919050565b60006020820190508181036000830152620008f581620008b3565b9050919050565b6000620009098262000402565b9150620009168362000402565b9250828201905080821115620009315762000930620007ff565b5b92915050565b620009428162000402565b82525050565b60006020820190506200095f600083018462000937565b92915050565b61171780620009756000396000f3fe6080604052600436106100ec5760003560e01c8063679aefce1161008a578063a0712d6811610059578063a0712d68146103be578063a457c2d7146103e7578063a9059cbb14610424578063dd62ed3e1461046157610198565b8063679aefce1461030057806370a082311461032b5780638da5cb5b1461036857806395d89b411461039357610198565b806323b872dd116100c657806323b872dd146102305780632c4e722e1461026d578063313ce5671461029857806339509351146102c357610198565b806306fdde031461019d578063095ea7b3146101c857806318160ddd1461020557610198565b3661019857600034036100fe57600080fd5b60006006543461010e9190610e98565b9050600560009054906101000a900473ffffffffffffffffffffffffffffffffffffffff1673ffffffffffffffffffffffffffffffffffffffff163373ffffffffffffffffffffffffffffffffffffffff161461016a57600080fd5b610196600560009054906101000a900473ffffffffffffffffffffffffffffffffffffffff168261049e565b005b600080fd5b3480156101a957600080fd5b506101b26105f4565b6040516101bf9190610f6a565b60405180910390f35b3480156101d457600080fd5b506101ef60048036038101906101ea919061101b565b610686565b6040516101fc9190611076565b60405180910390f35b34801561021157600080fd5b5061021a6106a9565b60405161022791906110a0565b60405180910390f35b34801561023c57600080fd5b50610257600480360381019061025291906110bb565b6106b3565b6040516102649190611076565b60405180910390f35b34801561027957600080fd5b506102826106e2565b60405161028f91906110a0565b60405180910390f35b3480156102a457600080fd5b506102ad6106e8565b6040516102ba919061112a565b60405180910390f35b3480156102cf57600080fd5b506102ea60048036038101906102e5919061101b565b6106f1565b6040516102f79190611076565b60405180910390f35b34801561030c57600080fd5b50610315610728565b60405161032291906110a0565b60405180910390f35b34801561033757600080fd5b50610352600480360381019061034d9190611145565b610732565b60405161035f91906110a0565b60405180910390f35b34801561037457600080fd5b5061037d61077a565b60405161038a9190611181565b60405180910390f35b34801561039f57600080fd5b506103a86107a0565b6040516103b59190610f6a565b60405180910390f35b3480156103ca57600080fd5b506103e560048036038101906103e0919061119c565b610832565b005b3480156103f357600080fd5b5061040e6004803603810190610409919061101b565b610861565b60405161041b9190611076565b60405180910390f35b34801561043057600080fd5b5061044b6004803603810190610446919061101b565b6108d8565b6040516104589190611076565b60405180910390f35b34801561046d57600080fd5b50610488600480360381019061048391906111c9565b6108fb565b60405161049591906110a0565b60405180910390f35b600073ffffffffffffffffffffffffffffffffffffffff168273ffffffffffffffffffffffffffffffffffffffff160361050d576040517f08c379a000000000000000000000000000000000000000000000000000000000815260040161050490611255565b60405180910390fd5b61051960008383610982565b806002600082825461052b9190611275565b92505081905550806000808473ffffffffffffffffffffffffffffffffffffffff1673ffffffffffffffffffffffffffffffffffffffff168152602001908152602001600020600082825401925050819055508173ffffffffffffffffffffffffffffffffffffffff16600073ffffffffffffffffffffffffffffffffffffffff167fddf252ad1be2c89b69c2b068fc378daa952ba7f163c4a11628f55a4df523b3ef836040516105dc91906110a0565b60405180910390a36105f060008383610987565b5050565b606060038054610603906112d8565b80601f016020809104026020016040519081016040528092919081815260200182805461062f906112d8565b801561067c5780601f106106515761010080835404028352916020019161067c565b820191906000526020600020905b81548152906001019060200180831161065f57829003601f168201915b5050505050905090565b60008061069161098c565b905061069e818585610994565b600191505092915050565b6000600254905090565b6000806106be61098c565b90506106cb858285610b5d565b6106d6858585610be9565b60019150509392505050565b60065481565b60006012905090565b6000806106fc61098c565b905061071d81858561070e85896108fb565b6107189190611275565b610994565b600191505092915050565b6000600654905090565b60008060008373ffffffffffffffffffffffffffffffffffffffff1673ffffffffffffffffffffffffffffffffffffffff168152602001908152602001600020549050919050565b600560009054906101000a900473ffffffffffffffffffffffffffffffffffffffff1681565b6060600480546107af906112d8565b80601f01602080910402602001604051908101604052809291908181526020018280546107db906112d8565b80156108285780601f106107fd57610100808354040283529160200191610828565b820191906000526020600020905b81548152906001019060200180831161080b57829003601f168201915b5050505050905090565b61085e600560009054906101000a900473ffffffffffffffffffffffffffffffffffffffff168261049e565b50565b60008061086c61098c565b9050600061087a82866108fb565b9050838110156108bf576040517f08c379a00000000000000000000000000000000000000000000000000000000081526004016108b69061137b565b60405180910390fd5b6108cc8286868403610994565b60019250505092915050565b6000806108e361098c565b90506108f0818585610be9565b600191505092915050565b6000600160008473ffffffffffffffffffffffffffffffffffffffff1673ffffffffffffffffffffffffffffffffffffffff16815260200190815260200160002060008373ffffffffffffffffffffffffffffffffffffffff1673ffffffffffffffffffffffffffffffffffffffff16815260200190815260200160002054905092915050565b505050565b505050565b600033905090565b600073ffffffffffffffffffffffffffffffffffffffff168373ffffffffffffffffffffffffffffffffffffffff1603610a03576040517f08c379a00000000000000000000000000000000000000000000000000000000081526004016109fa9061140d565b60405180910390fd5b600073ffffffffffffffffffffffffffffffffffffffff168273ffffffffffffffffffffffffffffffffffffffff1603610a72576040517f08c379a0000000000000000000000000000000000000000000000000000000008152600401610a699061149f565b60405180910390fd5b80600160008573ffffffffffffffffffffffffffffffffffffffff1673ffffffffffffffffffffffffffffffffffffffff16815260200190815260200160002060008473ffffffffffffffffffffffffffffffffffffffff1673ffffffffffffffffffffffffffffffffffffffff168152602001908152602001600020819055508173ffffffffffffffffffffffffffffffffffffffff168373ffffffffffffffffffffffffffffffffffffffff167f8c5be1e5ebec7d5bd14f71427d1e84f3dd0314c0f7b2291e5b200ac8c7c3b92583604051610b5091906110a0565b60405180910390a3505050565b6000610b6984846108fb565b90507fffffffffffffffffffffffffffffffffffffffffffffffffffffffffffffffff8114610be35781811015610bd5576040517f08c379a0000000000000000000000000000000000000000000000000000000008152600401610bcc9061150b565b60405180910390fd5b610be28484848403610994565b5b50505050565b600073ffffffffffffffffffffffffffffffffffffffff168373ffffffffffffffffffffffffffffffffffffffff1603610c58576040517f08c379a0000000000000000000000000000000000000000000000000000000008152600401610c4f9061159d565b60405180910390fd5b600073ffffffffffffffffffffffffffffffffffffffff168273ffffffffffffffffffffffffffffffffffffffff1603610cc7576040517f08c379a0000000000000000000000000000000000000000000000000000000008152600401610cbe9061162f565b60405180910390fd5b610cd2838383610982565b60008060008573ffffffffffffffffffffffffffffffffffffffff1673ffffffffffffffffffffffffffffffffffffffff16815260200190815260200160002054905081811015610d58576040517f08c379a0000000000000000000000000000000000000000000000000000000008152600401610d4f906116c1565b60405180910390fd5b8181036000808673ffffffffffffffffffffffffffffffffffffffff1673ffffffffffffffffffffffffffffffffffffffff16815260200190815260200160002081905550816000808573ffffffffffffffffffffffffffffffffffffffff1673ffffffffffffffffffffffffffffffffffffffff168152602001908152602001600020600082825401925050819055508273ffffffffffffffffffffffffffffffffffffffff168473ffffffffffffffffffffffffffffffffffffffff167fddf252ad1be2c89b69c2b068fc378daa952ba7f163c4a11628f55a4df523b3ef84604051610e4691906110a0565b60405180910390a3610e59848484610987565b50505050565b6000819050919050565b7f4e487b7100000000000000000000000000000000000000000000000000000000600052601160045260246000fd5b6000610ea382610e5f565b9150610eae83610e5f565b9250828202610ebc81610e5f565b91508282048414831517610ed357610ed2610e69565b5b5092915050565b600081519050919050565b600082825260208201905092915050565b60005b83811015610f14578082015181840152602081019050610ef9565b60008484015250505050565b6000601f19601f8301169050919050565b6000610f3c82610eda565b610f468185610ee5565b9350610f56818560208601610ef6565b610f5f81610f20565b840191505092915050565b60006020820190508181036000830152610f848184610f31565b905092915050565b600080fd5b600073ffffffffffffffffffffffffffffffffffffffff82169050919050565b6000610fbc82610f91565b9050919050565b610fcc81610fb1565b8114610fd757600080fd5b50565b600081359050610fe981610fc3565b92915050565b610ff881610e5f565b811461100357600080fd5b50565b60008135905061101581610fef565b92915050565b6000806040838503121561103257611031610f8c565b5b600061104085828601610fda565b925050602061105185828601611006565b9150509250929050565b60008115159050919050565b6110708161105b565b82525050565b600060208201905061108b6000830184611067565b92915050565b61109a81610e5f565b82525050565b60006020820190506110b56000830184611091565b92915050565b6000806000606084860312156110d4576110d3610f8c565b5b60006110e286828701610fda565b93505060206110f386828701610fda565b925050604061110486828701611006565b9150509250925092565b600060ff82169050919050565b6111248161110e565b82525050565b600060208201905061113f600083018461111b565b92915050565b60006020828403121561115b5761115a610f8c565b5b600061116984828501610fda565b91505092915050565b61117b81610fb1565b82525050565b60006020820190506111966000830184611172565b92915050565b6000602082840312156111b2576111b1610f8c565b5b60006111c084828501611006565b91505092915050565b600080604083850312156111e0576111df610f8c565b5b60006111ee85828601610fda565b92505060206111ff85828601610fda565b9150509250929050565b7f45524332303a206d696e7420746f20746865207a65726f206164647265737300600082015250565b600061123f601f83610ee5565b915061124a82611209565b602082019050919050565b6000602082019050818103600083015261126e81611232565b9050919050565b600061128082610e5f565b915061128b83610e5f565b92508282019050808211156112a3576112a2610e69565b5b92915050565b7f4e487b7100000000000000000000000000000000000000000000000000000000600052602260045260246000fd5b600060028204905060018216806112f057607f821691505b602082108103611303576113026112a9565b5b50919050565b7f45524332303a2064656372656173656420616c6c6f77616e63652062656c6f7760008201527f207a65726f000000000000000000000000000000000000000000000000000000602082015250565b6000611365602583610ee5565b915061137082611309565b604082019050919050565b6000602082019050818103600083015261139481611358565b9050919050565b7f45524332303a20617070726f76652066726f6d20746865207a65726f2061646460008201527f7265737300000000000000000000000000000000000000000000000000000000602082015250565b60006113f7602483610ee5565b91506114028261139b565b604082019050919050565b60006020820190508181036000830152611426816113ea565b9050919050565b7f45524332303a20617070726f766520746f20746865207a65726f20616464726560008201527f7373000000000000000000000000000000000000000000000000000000000000602082015250565b6000611489602283610ee5565b91506114948261142d565b604082019050919050565b600060208201905081810360008301526114b88161147c565b9050919050565b7f45524332303a20696e73756666696369656e7420616c6c6f77616e6365000000600082015250565b60006114f5601d83610ee5565b9150611500826114bf565b602082019050919050565b60006020820190508181036000830152611524816114e8565b9050919050565b7f45524332303a207472616e736665722066726f6d20746865207a65726f20616460008201527f6472657373000000000000000000000000000000000000000000000000000000602082015250565b6000611587602583610ee5565b91506115928261152b565b604082019050919050565b600060208201905081810360008301526115b68161157a565b9050919050565b7f45524332303a207472616e7366657220746f20746865207a65726f206164647260008201527f6573730000000000000000000000000000000000000000000000000000000000602082015250565b6000611619602383610ee5565b9150611624826115bd565b604082019050919050565b600060208201905081810360008301526116488161160c565b9050919050565b7f45524332303a207472616e7366657220616d6f756e742065786365656473206260008201527f616c616e63650000000000000000000000000000000000000000000000000000602082015250565b60006116ab602683610ee5565b91506116b68261164f565b604082019050919050565b600060208201905081810360008301526116da8161169e565b905091905056fea2646970667358221220c785c2db0d43185ec978d7f5d3f7ff8e318ef6850d2ce5bdb0ea6b8a230ca45c64736f6c63430008130033",
  "immutableReferences": {},
  "source": "// SPDX-License-Identifier: MIT\r\npragma solidity ^0.8.19;\r\n\r\nimport \"../node_modules/@openzeppelin/contracts/token/ERC20/ERC20.sol\";\r\n\r\ncontract TrioToken is ERC20 {\r\n  address public owner;\r\n\r\n  uint public rate = 500;\r\n\r\n  constructor(\r\n    string memory _name,\r\n    string memory _symbol,\r\n    uint256 _amount\r\n  ) ERC20(_name, _symbol) {\r\n    owner = msg.sender;\r\n    _mint(owner, _amount * 10 ** 18);\r\n  }\r\n\r\n  function mint(uint256 _amount) public {\r\n    // require(owner == msg.sender);\r\n    _mint(owner, _amount);\r\n  }\r\n\r\n  function getRate() external view returns (uint) {\r\n    return rate;\r\n  }\r\n\r\n  receive() external payable {\r\n    require(msg.value != 0);\r\n    uint amount = msg.value * rate;\r\n    require(msg.sender == owner); //    .\r\n    _mint(owner, amount);\r\n    // token.transfer(address(this), amount);\r\n  }\r\n}\r\n",
  "sourcePath": "C:\\Users\\kawonlee\\Documents\\GitHub\\NFT-market-TeamProject\\back\\contracts\\TrioToken.sol",
  "compiler": {
    "name": "solc",
    "version": "0.8.19+commit.7dd6d404.Emscripten.clang"
  },
  "schemaVersion": "3.4.13",
  "updatedAt": "2023-03-22T05:04:48.213Z",
  "devdoc": {
    "events": {
      "Approval(address,address,uint256)": {
        "details": "Emitted when the allowance of a `spender` for an `owner` is set by a call to {approve}. `value` is the new allowance."
      },
      "Transfer(address,address,uint256)": {
        "details": "Emitted when `value` tokens are moved from one account (`from`) to another (`to`). Note that `value` may be zero."
      }
    },
    "kind": "dev",
    "methods": {
      "allowance(address,address)": {
        "details": "See {IERC20-allowance}."
      },
      "approve(address,uint256)": {
        "details": "See {IERC20-approve}. NOTE: If `amount` is the maximum `uint256`, the allowance is not updated on `transferFrom`. This is semantically equivalent to an infinite approval. Requirements: - `spender` cannot be the zero address."
      },
      "balanceOf(address)": {
        "details": "See {IERC20-balanceOf}."
      },
      "decimals()": {
        "details": "Returns the number of decimals used to get its user representation. For example, if `decimals` equals `2`, a balance of `505` tokens should be displayed to a user as `5.05` (`505 / 10 ** 2`). Tokens usually opt for a value of 18, imitating the relationship between Ether and Wei. This is the value {ERC20} uses, unless this function is overridden; NOTE: This information is only used for _display_ purposes: it in no way affects any of the arithmetic of the contract, including {IERC20-balanceOf} and {IERC20-transfer}."
      },
      "decreaseAllowance(address,uint256)": {
        "details": "Atomically decreases the allowance granted to `spender` by the caller. This is an alternative to {approve} that can be used as a mitigation for problems described in {IERC20-approve}. Emits an {Approval} event indicating the updated allowance. Requirements: - `spender` cannot be the zero address. - `spender` must have allowance for the caller of at least `subtractedValue`."
      },
      "increaseAllowance(address,uint256)": {
        "details": "Atomically increases the allowance granted to `spender` by the caller. This is an alternative to {approve} that can be used as a mitigation for problems described in {IERC20-approve}. Emits an {Approval} event indicating the updated allowance. Requirements: - `spender` cannot be the zero address."
      },
      "name()": {
        "details": "Returns the name of the token."
      },
      "symbol()": {
        "details": "Returns the symbol of the token, usually a shorter version of the name."
      },
      "totalSupply()": {
        "details": "See {IERC20-totalSupply}."
      },
      "transfer(address,uint256)": {
        "details": "See {IERC20-transfer}. Requirements: - `to` cannot be the zero address. - the caller must have a balance of at least `amount`."
      },
      "transferFrom(address,address,uint256)": {
        "details": "See {IERC20-transferFrom}. Emits an {Approval} event indicating the updated allowance. This is not required by the EIP. See the note at the beginning of {ERC20}. NOTE: Does not update the allowance if the current allowance is the maximum `uint256`. Requirements: - `from` and `to` cannot be the zero address. - `from` must have a balance of at least `amount`. - the caller must have allowance for ``from``'s tokens of at least `amount`."
      }
    },
    "version": 1
  },
  "userdoc": {
    "kind": "user",
    "methods": {},
    "version": 1
  }
}