{
	"contracts/Swap.sol": {
		"Swap": {
			"abi": [
				{
					"inputs": [
						{
							"internalType": "contract TrioToken",
							"name": "_token",
							"type": "address"
						}
					],
					"stateMutability": "nonpayable",
					"type": "constructor"
				},
				{
					"inputs": [],
					"name": "buyToken",
					"outputs": [],
					"stateMutability": "payable",
					"type": "function"
				},
				{
					"inputs": [],
					"name": "getMsgSender",
					"outputs": [
						{
							"internalType": "address",
							"name": "",
							"type": "address"
						}
					],
					"stateMutability": "view",
					"type": "function"
				},
				{
					"inputs": [],
					"name": "getSwapBalance",
					"outputs": [
						{
							"internalType": "uint256",
							"name": "",
							"type": "uint256"
						}
					],
					"stateMutability": "view",
					"type": "function"
				},
				{
					"inputs": [],
					"name": "getThisAddress",
					"outputs": [
						{
							"internalType": "address",
							"name": "",
							"type": "address"
						}
					],
					"stateMutability": "view",
					"type": "function"
				},
				{
					"inputs": [],
					"name": "getToken",
					"outputs": [
						{
							"internalType": "address",
							"name": "",
							"type": "address"
						}
					],
					"stateMutability": "view",
					"type": "function"
				},
				{
					"inputs": [],
					"name": "owner",
					"outputs": [
						{
							"internalType": "address",
							"name": "",
							"type": "address"
						}
					],
					"stateMutability": "view",
					"type": "function"
				},
				{
					"inputs": [],
					"name": "token",
					"outputs": [
						{
							"internalType": "contract TrioToken",
							"name": "",
							"type": "address"
						}
					],
					"stateMutability": "view",
					"type": "function"
				}
			],
			"devdoc": {
				"kind": "dev",
				"methods": {},
				"version": 1
			},
			"evm": {
				"assembly": "    /* \"contracts/Swap.sol\":90:1534  contract Swap {... */\n  mstore(0x40, 0x80)\n    /* \"contracts/Swap.sol\":183:316  constructor(TrioToken _token) {... */\n  callvalue\n  dup1\n  iszero\n  tag_1\n  jumpi\n  0x00\n  dup1\n  revert\ntag_1:\n  pop\n  mload(0x40)\n  sub(codesize, bytecodeSize)\n  dup1\n  bytecodeSize\n  dup4\n  codecopy\n  dup2\n  dup2\n  add\n  0x40\n  mstore\n  dup2\n  add\n  swap1\n  tag_2\n  swap2\n  swap1\n  tag_3\n  jump\t// in\ntag_2:\n    /* \"contracts/Swap.sol\":228:234  _token */\n  dup1\n    /* \"contracts/Swap.sol\":220:225  token */\n  0x00\n  dup1\n    /* \"contracts/Swap.sol\":220:234  token = _token */\n  0x0100\n  exp\n  dup2\n  sload\n  dup2\n  0xffffffffffffffffffffffffffffffffffffffff\n  mul\n  not\n  and\n  swap1\n  dup4\n  0xffffffffffffffffffffffffffffffffffffffff\n  and\n  mul\n  or\n  swap1\n  sstore\n  pop\n    /* \"contracts/Swap.sol\":300:310  msg.sender */\n  caller\n    /* \"contracts/Swap.sol\":292:297  owner */\n  0x01\n  0x00\n    /* \"contracts/Swap.sol\":292:310  owner = msg.sender */\n  0x0100\n  exp\n  dup2\n  sload\n  dup2\n  0xffffffffffffffffffffffffffffffffffffffff\n  mul\n  not\n  and\n  swap1\n  dup4\n  0xffffffffffffffffffffffffffffffffffffffff\n  and\n  mul\n  or\n  swap1\n  sstore\n  pop\n    /* \"contracts/Swap.sol\":183:316  constructor(TrioToken _token) {... */\n  pop\n    /* \"contracts/Swap.sol\":90:1534  contract Swap {... */\n  jump(tag_6)\n    /* \"#utility.yul\":88:205   */\ntag_8:\n    /* \"#utility.yul\":197:198   */\n  0x00\n    /* \"#utility.yul\":194:195   */\n  dup1\n    /* \"#utility.yul\":187:199   */\n  revert\n    /* \"#utility.yul\":334:460   */\ntag_10:\n    /* \"#utility.yul\":371:378   */\n  0x00\n    /* \"#utility.yul\":411:453   */\n  0xffffffffffffffffffffffffffffffffffffffff\n    /* \"#utility.yul\":404:409   */\n  dup3\n    /* \"#utility.yul\":400:454   */\n  and\n    /* \"#utility.yul\":389:454   */\n  swap1\n  pop\n    /* \"#utility.yul\":334:460   */\n  swap2\n  swap1\n  pop\n  jump\t// out\n    /* \"#utility.yul\":466:570   */\ntag_11:\n    /* \"#utility.yul\":511:518   */\n  0x00\n    /* \"#utility.yul\":540:564   */\n  tag_21\n    /* \"#utility.yul\":558:563   */\n  dup3\n    /* \"#utility.yul\":540:564   */\n  tag_10\n  jump\t// in\ntag_21:\n    /* \"#utility.yul\":529:564   */\n  swap1\n  pop\n    /* \"#utility.yul\":466:570   */\n  swap2\n  swap1\n  pop\n  jump\t// out\n    /* \"#utility.yul\":576:697   */\ntag_12:\n    /* \"#utility.yul\":630:637   */\n  0x00\n    /* \"#utility.yul\":659:691   */\n  tag_23\n    /* \"#utility.yul\":685:690   */\n  dup3\n    /* \"#utility.yul\":659:691   */\n  tag_11\n  jump\t// in\ntag_23:\n    /* \"#utility.yul\":648:691   */\n  swap1\n  pop\n    /* \"#utility.yul\":576:697   */\n  swap2\n  swap1\n  pop\n  jump\t// out\n    /* \"#utility.yul\":703:859   */\ntag_13:\n    /* \"#utility.yul\":793:834   */\n  tag_25\n    /* \"#utility.yul\":828:833   */\n  dup2\n    /* \"#utility.yul\":793:834   */\n  tag_12\n  jump\t// in\ntag_25:\n    /* \"#utility.yul\":786:791   */\n  dup2\n    /* \"#utility.yul\":783:835   */\n  eq\n    /* \"#utility.yul\":773:853   */\n  tag_26\n  jumpi\n    /* \"#utility.yul\":849:850   */\n  0x00\n    /* \"#utility.yul\":846:847   */\n  dup1\n    /* \"#utility.yul\":839:851   */\n  revert\n    /* \"#utility.yul\":773:853   */\ntag_26:\n    /* \"#utility.yul\":703:859   */\n  pop\n  jump\t// out\n    /* \"#utility.yul\":865:1042   */\ntag_14:\n    /* \"#utility.yul\":939:944   */\n  0x00\n    /* \"#utility.yul\":970:976   */\n  dup2\n    /* \"#utility.yul\":964:977   */\n  mload\n    /* \"#utility.yul\":955:977   */\n  swap1\n  pop\n    /* \"#utility.yul\":986:1036   */\n  tag_28\n    /* \"#utility.yul\":1030:1035   */\n  dup2\n    /* \"#utility.yul\":986:1036   */\n  tag_13\n  jump\t// in\ntag_28:\n    /* \"#utility.yul\":865:1042   */\n  swap3\n  swap2\n  pop\n  pop\n  jump\t// out\n    /* \"#utility.yul\":1048:1433   */\ntag_3:\n    /* \"#utility.yul\":1135:1141   */\n  0x00\n    /* \"#utility.yul\":1184:1186   */\n  0x20\n    /* \"#utility.yul\":1172:1181   */\n  dup3\n    /* \"#utility.yul\":1163:1170   */\n  dup5\n    /* \"#utility.yul\":1159:1182   */\n  sub\n    /* \"#utility.yul\":1155:1187   */\n  slt\n    /* \"#utility.yul\":1152:1271   */\n  iszero\n  tag_30\n  jumpi\n    /* \"#utility.yul\":1190:1269   */\n  tag_31\n  tag_8\n  jump\t// in\ntag_31:\n    /* \"#utility.yul\":1152:1271   */\ntag_30:\n    /* \"#utility.yul\":1310:1311   */\n  0x00\n    /* \"#utility.yul\":1335:1416   */\n  tag_32\n    /* \"#utility.yul\":1408:1415   */\n  dup5\n    /* \"#utility.yul\":1399:1405   */\n  dup3\n    /* \"#utility.yul\":1388:1397   */\n  dup6\n    /* \"#utility.yul\":1384:1406   */\n  add\n    /* \"#utility.yul\":1335:1416   */\n  tag_14\n  jump\t// in\ntag_32:\n    /* \"#utility.yul\":1325:1416   */\n  swap2\n  pop\n    /* \"#utility.yul\":1281:1426   */\n  pop\n    /* \"#utility.yul\":1048:1433   */\n  swap3\n  swap2\n  pop\n  pop\n  jump\t// out\n    /* \"contracts/Swap.sol\":90:1534  contract Swap {... */\ntag_6:\n  dataSize(sub_0)\n  dup1\n  dataOffset(sub_0)\n  0x00\n  codecopy\n  0x00\n  return\nstop\n\nsub_0: assembly {\n        /* \"contracts/Swap.sol\":90:1534  contract Swap {... */\n      mstore(0x40, 0x80)\n      jumpi(tag_1, lt(calldatasize, 0x04))\n      shr(0xe0, calldataload(0x00))\n      dup1\n      0xa4821719\n      gt\n      tag_9\n      jumpi\n      dup1\n      0xa4821719\n      eq\n      tag_5\n      jumpi\n      dup1\n      0xc7b00aad\n      eq\n      tag_6\n      jumpi\n      dup1\n      0xd3953822\n      eq\n      tag_7\n      jumpi\n      dup1\n      0xfc0c546a\n      eq\n      tag_8\n      jumpi\n      jump(tag_1)\n    tag_9:\n      dup1\n      0x21df0da7\n      eq\n      tag_2\n      jumpi\n      dup1\n      0x7a6ce2e1\n      eq\n      tag_3\n      jumpi\n      dup1\n      0x8da5cb5b\n      eq\n      tag_4\n      jumpi\n    tag_1:\n      0x00\n      dup1\n      revert\n        /* \"contracts/Swap.sol\":322:449  function getToken() public view returns (address) {... */\n    tag_2:\n      callvalue\n      dup1\n      iszero\n      tag_10\n      jumpi\n      0x00\n      dup1\n      revert\n    tag_10:\n      pop\n      tag_11\n      tag_12\n      jump\t// in\n    tag_11:\n      mload(0x40)\n      tag_13\n      swap2\n      swap1\n      tag_14\n      jump\t// in\n    tag_13:\n      mload(0x40)\n      dup1\n      swap2\n      sub\n      swap1\n      return\n        /* \"contracts/Swap.sol\":890:1037  function getMsgSender() public view returns (address) {... */\n    tag_3:\n      callvalue\n      dup1\n      iszero\n      tag_15\n      jumpi\n      0x00\n      dup1\n      revert\n    tag_15:\n      pop\n      tag_16\n      tag_17\n      jump\t// in\n    tag_16:\n      mload(0x40)\n      tag_18\n      swap2\n      swap1\n      tag_14\n      jump\t// in\n    tag_18:\n      mload(0x40)\n      dup1\n      swap2\n      sub\n      swap1\n      return\n        /* \"contracts/Swap.sol\":156:176  address public owner */\n    tag_4:\n      callvalue\n      dup1\n      iszero\n      tag_19\n      jumpi\n      0x00\n      dup1\n      revert\n    tag_19:\n      pop\n      tag_20\n      tag_21\n      jump\t// in\n    tag_20:\n      mload(0x40)\n      tag_22\n      swap2\n      swap1\n      tag_14\n      jump\t// in\n    tag_22:\n      mload(0x40)\n      dup1\n      swap2\n      sub\n      swap1\n      return\n        /* \"contracts/Swap.sol\":1261:1531  function buyToken() public payable {... */\n    tag_5:\n      tag_23\n      tag_24\n      jump\t// in\n    tag_23:\n      stop\n        /* \"contracts/Swap.sol\":514:614  function getSwapBalance() public view returns (uint) {... */\n    tag_6:\n      callvalue\n      dup1\n      iszero\n      tag_25\n      jumpi\n      0x00\n      dup1\n      revert\n    tag_25:\n      pop\n      tag_26\n      tag_27\n      jump\t// in\n    tag_26:\n      mload(0x40)\n      tag_28\n      swap2\n      swap1\n      tag_29\n      jump\t// in\n    tag_28:\n      mload(0x40)\n      dup1\n      swap2\n      sub\n      swap1\n      return\n        /* \"contracts/Swap.sol\":695:884  function getThisAddress() public view returns (address) {... */\n    tag_7:\n      callvalue\n      dup1\n      iszero\n      tag_30\n      jumpi\n      0x00\n      dup1\n      revert\n    tag_30:\n      pop\n      tag_31\n      tag_32\n      jump\t// in\n    tag_31:\n      mload(0x40)\n      tag_33\n      swap2\n      swap1\n      tag_14\n      jump\t// in\n    tag_33:\n      mload(0x40)\n      dup1\n      swap2\n      sub\n      swap1\n      return\n        /* \"contracts/Swap.sol\":109:131  TrioToken public token */\n    tag_8:\n      callvalue\n      dup1\n      iszero\n      tag_34\n      jumpi\n      0x00\n      dup1\n      revert\n    tag_34:\n      pop\n      tag_35\n      tag_36\n      jump\t// in\n    tag_35:\n      mload(0x40)\n      tag_37\n      swap2\n      swap1\n      tag_38\n      jump\t// in\n    tag_37:\n      mload(0x40)\n      dup1\n      swap2\n      sub\n      swap1\n      return\n        /* \"contracts/Swap.sol\":322:449  function getToken() public view returns (address) {... */\n    tag_12:\n        /* \"contracts/Swap.sol\":363:370  address */\n      0x00\n        /* \"contracts/Swap.sol\":394:399  token */\n      dup1\n      0x00\n      swap1\n      sload\n      swap1\n      0x0100\n      exp\n      swap1\n      div\n      0xffffffffffffffffffffffffffffffffffffffff\n      and\n        /* \"contracts/Swap.sol\":379:400  return address(token) */\n      swap1\n      pop\n        /* \"contracts/Swap.sol\":322:449  function getToken() public view returns (address) {... */\n      swap1\n      jump\t// out\n        /* \"contracts/Swap.sol\":890:1037  function getMsgSender() public view returns (address) {... */\n    tag_17:\n        /* \"contracts/Swap.sol\":935:942  address */\n      0x00\n        /* \"contracts/Swap.sol\":958:968  msg.sender */\n      caller\n        /* \"contracts/Swap.sol\":951:968  return msg.sender */\n      swap1\n      pop\n        /* \"contracts/Swap.sol\":890:1037  function getMsgSender() public view returns (address) {... */\n      swap1\n      jump\t// out\n        /* \"contracts/Swap.sol\":156:176  address public owner */\n    tag_21:\n      0x01\n      0x00\n      swap1\n      sload\n      swap1\n      0x0100\n      exp\n      swap1\n      div\n      0xffffffffffffffffffffffffffffffffffffffff\n      and\n      dup2\n      jump\t// out\n        /* \"contracts/Swap.sol\":1261:1531  function buyToken() public payable {... */\n    tag_24:\n        /* \"contracts/Swap.sol\":1303:1322  uint256 tokenAmount */\n      0x00\n        /* \"contracts/Swap.sol\":1337:1342  token */\n      dup1\n      0x00\n      swap1\n      sload\n      swap1\n      0x0100\n      exp\n      swap1\n      div\n      0xffffffffffffffffffffffffffffffffffffffff\n      and\n        /* \"contracts/Swap.sol\":1337:1350  token.getRate */\n      0xffffffffffffffffffffffffffffffffffffffff\n      and\n      0x679aefce\n        /* \"contracts/Swap.sol\":1337:1352  token.getRate() */\n      mload(0x40)\n      dup2\n      0xffffffff\n      and\n      0xe0\n      shl\n      dup2\n      mstore\n      0x04\n      add\n      0x20\n      mload(0x40)\n      dup1\n      dup4\n      sub\n      dup2\n      dup7\n      gas\n      staticcall\n      iszero\n      dup1\n      iszero\n      tag_43\n      jumpi\n      returndatasize\n      0x00\n      dup1\n      returndatacopy\n      revert(0x00, returndatasize)\n    tag_43:\n      pop\n      pop\n      pop\n      pop\n      mload(0x40)\n      returndatasize\n      not(0x1f)\n      0x1f\n      dup3\n      add\n      and\n      dup3\n      add\n      dup1\n      0x40\n      mstore\n      pop\n      dup2\n      add\n      swap1\n      tag_44\n      swap2\n      swap1\n      tag_45\n      jump\t// in\n    tag_44:\n        /* \"contracts/Swap.sol\":1325:1334  msg.value */\n      callvalue\n        /* \"contracts/Swap.sol\":1325:1352  msg.value * token.getRate() */\n      tag_46\n      swap2\n      swap1\n      tag_47\n      jump\t// in\n    tag_46:\n        /* \"contracts/Swap.sol\":1303:1352  uint256 tokenAmount = msg.value * token.getRate() */\n      swap1\n      pop\n        /* \"contracts/Swap.sol\":1420:1431  tokenAmount */\n      dup1\n        /* \"contracts/Swap.sol\":1386:1391  token */\n      0x00\n      dup1\n      sload\n      swap1\n      0x0100\n      exp\n      swap1\n      div\n      0xffffffffffffffffffffffffffffffffffffffff\n      and\n        /* \"contracts/Swap.sol\":1386:1401  token.balanceOf */\n      0xffffffffffffffffffffffffffffffffffffffff\n      and\n      0x70a08231\n        /* \"contracts/Swap.sol\":1410:1414  this */\n      address\n        /* \"contracts/Swap.sol\":1386:1416  token.balanceOf(address(this)) */\n      mload(0x40)\n      dup3\n      0xffffffff\n      and\n      0xe0\n      shl\n      dup2\n      mstore\n      0x04\n      add\n      tag_48\n      swap2\n      swap1\n      tag_14\n      jump\t// in\n    tag_48:\n      0x20\n      mload(0x40)\n      dup1\n      dup4\n      sub\n      dup2\n      dup7\n      gas\n      staticcall\n      iszero\n      dup1\n      iszero\n      tag_50\n      jumpi\n      returndatasize\n      0x00\n      dup1\n      returndatacopy\n      revert(0x00, returndatasize)\n    tag_50:\n      pop\n      pop\n      pop\n      pop\n      mload(0x40)\n      returndatasize\n      not(0x1f)\n      0x1f\n      dup3\n      add\n      and\n      dup3\n      add\n      dup1\n      0x40\n      mstore\n      pop\n      dup2\n      add\n      swap1\n      tag_51\n      swap2\n      swap1\n      tag_45\n      jump\t// in\n    tag_51:\n        /* \"contracts/Swap.sol\":1386:1431  token.balanceOf(address(this)) >= tokenAmount */\n      lt\n      iszero\n        /* \"contracts/Swap.sol\":1378:1445  require(token.balanceOf(address(this)) >= tokenAmount, \"error [1]\") */\n      tag_52\n      jumpi\n      mload(0x40)\n      0x08c379a000000000000000000000000000000000000000000000000000000000\n      dup2\n      mstore\n      0x04\n      add\n      tag_53\n      swap1\n      tag_54\n      jump\t// in\n    tag_53:\n      mload(0x40)\n      dup1\n      swap2\n      sub\n      swap1\n      revert\n    tag_52:\n        /* \"contracts/Swap.sol\":1452:1457  token */\n      0x00\n      dup1\n      sload\n      swap1\n      0x0100\n      exp\n      swap1\n      div\n      0xffffffffffffffffffffffffffffffffffffffff\n      and\n        /* \"contracts/Swap.sol\":1452:1466  token.transfer */\n      0xffffffffffffffffffffffffffffffffffffffff\n      and\n      0xa9059cbb\n        /* \"contracts/Swap.sol\":1467:1477  msg.sender */\n      caller\n        /* \"contracts/Swap.sol\":1479:1490  tokenAmount */\n      dup4\n        /* \"contracts/Swap.sol\":1452:1491  token.transfer(msg.sender, tokenAmount) */\n      mload(0x40)\n      dup4\n      0xffffffff\n      and\n      0xe0\n      shl\n      dup2\n      mstore\n      0x04\n      add\n      tag_55\n      swap3\n      swap2\n      swap1\n      tag_56\n      jump\t// in\n    tag_55:\n      0x20\n      mload(0x40)\n      dup1\n      dup4\n      sub\n      dup2\n      0x00\n      dup8\n      gas\n      call\n      iszero\n      dup1\n      iszero\n      tag_58\n      jumpi\n      returndatasize\n      0x00\n      dup1\n      returndatacopy\n      revert(0x00, returndatasize)\n    tag_58:\n      pop\n      pop\n      pop\n      pop\n      mload(0x40)\n      returndatasize\n      not(0x1f)\n      0x1f\n      dup3\n      add\n      and\n      dup3\n      add\n      dup1\n      0x40\n      mstore\n      pop\n      dup2\n      add\n      swap1\n      tag_59\n      swap2\n      swap1\n      tag_60\n      jump\t// in\n    tag_59:\n      pop\n        /* \"contracts/Swap.sol\":1296:1531  {... */\n      pop\n        /* \"contracts/Swap.sol\":1261:1531  function buyToken() public payable {... */\n      jump\t// out\n        /* \"contracts/Swap.sol\":514:614  function getSwapBalance() public view returns (uint) {... */\n    tag_27:\n        /* \"contracts/Swap.sol\":561:565  uint */\n      0x00\n        /* \"contracts/Swap.sol\":581:586  token */\n      dup1\n      0x00\n      swap1\n      sload\n      swap1\n      0x0100\n      exp\n      swap1\n      div\n      0xffffffffffffffffffffffffffffffffffffffff\n      and\n        /* \"contracts/Swap.sol\":581:596  token.balanceOf */\n      0xffffffffffffffffffffffffffffffffffffffff\n      and\n      0x70a08231\n        /* \"contracts/Swap.sol\":597:607  msg.sender */\n      caller\n        /* \"contracts/Swap.sol\":581:608  token.balanceOf(msg.sender) */\n      mload(0x40)\n      dup3\n      0xffffffff\n      and\n      0xe0\n      shl\n      dup2\n      mstore\n      0x04\n      add\n      tag_62\n      swap2\n      swap1\n      tag_14\n      jump\t// in\n    tag_62:\n      0x20\n      mload(0x40)\n      dup1\n      dup4\n      sub\n      dup2\n      dup7\n      gas\n      staticcall\n      iszero\n      dup1\n      iszero\n      tag_64\n      jumpi\n      returndatasize\n      0x00\n      dup1\n      returndatacopy\n      revert(0x00, returndatasize)\n    tag_64:\n      pop\n      pop\n      pop\n      pop\n      mload(0x40)\n      returndatasize\n      not(0x1f)\n      0x1f\n      dup3\n      add\n      and\n      dup3\n      add\n      dup1\n      0x40\n      mstore\n      pop\n      dup2\n      add\n      swap1\n      tag_65\n      swap2\n      swap1\n      tag_45\n      jump\t// in\n    tag_65:\n        /* \"contracts/Swap.sol\":574:608  return token.balanceOf(msg.sender) */\n      swap1\n      pop\n        /* \"contracts/Swap.sol\":514:614  function getSwapBalance() public view returns (uint) {... */\n      swap1\n      jump\t// out\n        /* \"contracts/Swap.sol\":695:884  function getThisAddress() public view returns (address) {... */\n    tag_32:\n        /* \"contracts/Swap.sol\":742:749  address */\n      0x00\n        /* \"contracts/Swap.sol\":773:777  this */\n      address\n        /* \"contracts/Swap.sol\":758:778  return address(this) */\n      swap1\n      pop\n        /* \"contracts/Swap.sol\":695:884  function getThisAddress() public view returns (address) {... */\n      swap1\n      jump\t// out\n        /* \"contracts/Swap.sol\":109:131  TrioToken public token */\n    tag_36:\n      0x00\n      dup1\n      sload\n      swap1\n      0x0100\n      exp\n      swap1\n      div\n      0xffffffffffffffffffffffffffffffffffffffff\n      and\n      dup2\n      jump\t// out\n        /* \"#utility.yul\":7:133   */\n    tag_67:\n        /* \"#utility.yul\":44:51   */\n      0x00\n        /* \"#utility.yul\":84:126   */\n      0xffffffffffffffffffffffffffffffffffffffff\n        /* \"#utility.yul\":77:82   */\n      dup3\n        /* \"#utility.yul\":73:127   */\n      and\n        /* \"#utility.yul\":62:127   */\n      swap1\n      pop\n        /* \"#utility.yul\":7:133   */\n      swap2\n      swap1\n      pop\n      jump\t// out\n        /* \"#utility.yul\":139:235   */\n    tag_68:\n        /* \"#utility.yul\":176:183   */\n      0x00\n        /* \"#utility.yul\":205:229   */\n      tag_92\n        /* \"#utility.yul\":223:228   */\n      dup3\n        /* \"#utility.yul\":205:229   */\n      tag_67\n      jump\t// in\n    tag_92:\n        /* \"#utility.yul\":194:229   */\n      swap1\n      pop\n        /* \"#utility.yul\":139:235   */\n      swap2\n      swap1\n      pop\n      jump\t// out\n        /* \"#utility.yul\":241:359   */\n    tag_69:\n        /* \"#utility.yul\":328:352   */\n      tag_94\n        /* \"#utility.yul\":346:351   */\n      dup2\n        /* \"#utility.yul\":328:352   */\n      tag_68\n      jump\t// in\n    tag_94:\n        /* \"#utility.yul\":323:326   */\n      dup3\n        /* \"#utility.yul\":316:353   */\n      mstore\n        /* \"#utility.yul\":241:359   */\n      pop\n      pop\n      jump\t// out\n        /* \"#utility.yul\":365:587   */\n    tag_14:\n        /* \"#utility.yul\":458:462   */\n      0x00\n        /* \"#utility.yul\":496:498   */\n      0x20\n        /* \"#utility.yul\":485:494   */\n      dup3\n        /* \"#utility.yul\":481:499   */\n      add\n        /* \"#utility.yul\":473:499   */\n      swap1\n      pop\n        /* \"#utility.yul\":509:580   */\n      tag_96\n        /* \"#utility.yul\":577:578   */\n      0x00\n        /* \"#utility.yul\":566:575   */\n      dup4\n        /* \"#utility.yul\":562:579   */\n      add\n        /* \"#utility.yul\":553:559   */\n      dup5\n        /* \"#utility.yul\":509:580   */\n      tag_69\n      jump\t// in\n    tag_96:\n        /* \"#utility.yul\":365:587   */\n      swap3\n      swap2\n      pop\n      pop\n      jump\t// out\n        /* \"#utility.yul\":593:670   */\n    tag_70:\n        /* \"#utility.yul\":630:637   */\n      0x00\n        /* \"#utility.yul\":659:664   */\n      dup2\n        /* \"#utility.yul\":648:664   */\n      swap1\n      pop\n        /* \"#utility.yul\":593:670   */\n      swap2\n      swap1\n      pop\n      jump\t// out\n        /* \"#utility.yul\":676:794   */\n    tag_71:\n        /* \"#utility.yul\":763:787   */\n      tag_99\n        /* \"#utility.yul\":781:786   */\n      dup2\n        /* \"#utility.yul\":763:787   */\n      tag_70\n      jump\t// in\n    tag_99:\n        /* \"#utility.yul\":758:761   */\n      dup3\n        /* \"#utility.yul\":751:788   */\n      mstore\n        /* \"#utility.yul\":676:794   */\n      pop\n      pop\n      jump\t// out\n        /* \"#utility.yul\":800:1022   */\n    tag_29:\n        /* \"#utility.yul\":893:897   */\n      0x00\n        /* \"#utility.yul\":931:933   */\n      0x20\n        /* \"#utility.yul\":920:929   */\n      dup3\n        /* \"#utility.yul\":916:934   */\n      add\n        /* \"#utility.yul\":908:934   */\n      swap1\n      pop\n        /* \"#utility.yul\":944:1015   */\n      tag_101\n        /* \"#utility.yul\":1012:1013   */\n      0x00\n        /* \"#utility.yul\":1001:1010   */\n      dup4\n        /* \"#utility.yul\":997:1014   */\n      add\n        /* \"#utility.yul\":988:994   */\n      dup5\n        /* \"#utility.yul\":944:1015   */\n      tag_71\n      jump\t// in\n    tag_101:\n        /* \"#utility.yul\":800:1022   */\n      swap3\n      swap2\n      pop\n      pop\n      jump\t// out\n        /* \"#utility.yul\":1028:1088   */\n    tag_72:\n        /* \"#utility.yul\":1056:1059   */\n      0x00\n        /* \"#utility.yul\":1077:1082   */\n      dup2\n        /* \"#utility.yul\":1070:1082   */\n      swap1\n      pop\n        /* \"#utility.yul\":1028:1088   */\n      swap2\n      swap1\n      pop\n      jump\t// out\n        /* \"#utility.yul\":1094:1236   */\n    tag_73:\n        /* \"#utility.yul\":1144:1153   */\n      0x00\n        /* \"#utility.yul\":1177:1230   */\n      tag_104\n        /* \"#utility.yul\":1195:1229   */\n      tag_105\n        /* \"#utility.yul\":1204:1228   */\n      tag_106\n        /* \"#utility.yul\":1222:1227   */\n      dup5\n        /* \"#utility.yul\":1204:1228   */\n      tag_67\n      jump\t// in\n    tag_106:\n        /* \"#utility.yul\":1195:1229   */\n      tag_72\n      jump\t// in\n    tag_105:\n        /* \"#utility.yul\":1177:1230   */\n      tag_67\n      jump\t// in\n    tag_104:\n        /* \"#utility.yul\":1164:1230   */\n      swap1\n      pop\n        /* \"#utility.yul\":1094:1236   */\n      swap2\n      swap1\n      pop\n      jump\t// out\n        /* \"#utility.yul\":1242:1376   */\n    tag_74:\n        /* \"#utility.yul\":1300:1309   */\n      0x00\n        /* \"#utility.yul\":1333:1370   */\n      tag_108\n        /* \"#utility.yul\":1364:1369   */\n      dup3\n        /* \"#utility.yul\":1333:1370   */\n      tag_73\n      jump\t// in\n    tag_108:\n        /* \"#utility.yul\":1320:1370   */\n      swap1\n      pop\n        /* \"#utility.yul\":1242:1376   */\n      swap2\n      swap1\n      pop\n      jump\t// out\n        /* \"#utility.yul\":1382:1541   */\n    tag_75:\n        /* \"#utility.yul\":1457:1466   */\n      0x00\n        /* \"#utility.yul\":1490:1535   */\n      tag_110\n        /* \"#utility.yul\":1529:1534   */\n      dup3\n        /* \"#utility.yul\":1490:1535   */\n      tag_74\n      jump\t// in\n    tag_110:\n        /* \"#utility.yul\":1477:1535   */\n      swap1\n      pop\n        /* \"#utility.yul\":1382:1541   */\n      swap2\n      swap1\n      pop\n      jump\t// out\n        /* \"#utility.yul\":1547:1728   */\n    tag_76:\n        /* \"#utility.yul\":1659:1721   */\n      tag_112\n        /* \"#utility.yul\":1715:1720   */\n      dup2\n        /* \"#utility.yul\":1659:1721   */\n      tag_75\n      jump\t// in\n    tag_112:\n        /* \"#utility.yul\":1654:1657   */\n      dup3\n        /* \"#utility.yul\":1647:1722   */\n      mstore\n        /* \"#utility.yul\":1547:1728   */\n      pop\n      pop\n      jump\t// out\n        /* \"#utility.yul\":1734:2006   */\n    tag_38:\n        /* \"#utility.yul\":1852:1856   */\n      0x00\n        /* \"#utility.yul\":1890:1892   */\n      0x20\n        /* \"#utility.yul\":1879:1888   */\n      dup3\n        /* \"#utility.yul\":1875:1893   */\n      add\n        /* \"#utility.yul\":1867:1893   */\n      swap1\n      pop\n        /* \"#utility.yul\":1903:1999   */\n      tag_114\n        /* \"#utility.yul\":1996:1997   */\n      0x00\n        /* \"#utility.yul\":1985:1994   */\n      dup4\n        /* \"#utility.yul\":1981:1998   */\n      add\n        /* \"#utility.yul\":1972:1978   */\n      dup5\n        /* \"#utility.yul\":1903:1999   */\n      tag_76\n      jump\t// in\n    tag_114:\n        /* \"#utility.yul\":1734:2006   */\n      swap3\n      swap2\n      pop\n      pop\n      jump\t// out\n        /* \"#utility.yul\":2093:2210   */\n    tag_78:\n        /* \"#utility.yul\":2202:2203   */\n      0x00\n        /* \"#utility.yul\":2199:2200   */\n      dup1\n        /* \"#utility.yul\":2192:2204   */\n      revert\n        /* \"#utility.yul\":2339:2461   */\n    tag_80:\n        /* \"#utility.yul\":2412:2436   */\n      tag_119\n        /* \"#utility.yul\":2430:2435   */\n      dup2\n        /* \"#utility.yul\":2412:2436   */\n      tag_70\n      jump\t// in\n    tag_119:\n        /* \"#utility.yul\":2405:2410   */\n      dup2\n        /* \"#utility.yul\":2402:2437   */\n      eq\n        /* \"#utility.yul\":2392:2455   */\n      tag_120\n      jumpi\n        /* \"#utility.yul\":2451:2452   */\n      0x00\n        /* \"#utility.yul\":2448:2449   */\n      dup1\n        /* \"#utility.yul\":2441:2453   */\n      revert\n        /* \"#utility.yul\":2392:2455   */\n    tag_120:\n        /* \"#utility.yul\":2339:2461   */\n      pop\n      jump\t// out\n        /* \"#utility.yul\":2467:2610   */\n    tag_81:\n        /* \"#utility.yul\":2524:2529   */\n      0x00\n        /* \"#utility.yul\":2555:2561   */\n      dup2\n        /* \"#utility.yul\":2549:2562   */\n      mload\n        /* \"#utility.yul\":2540:2562   */\n      swap1\n      pop\n        /* \"#utility.yul\":2571:2604   */\n      tag_122\n        /* \"#utility.yul\":2598:2603   */\n      dup2\n        /* \"#utility.yul\":2571:2604   */\n      tag_80\n      jump\t// in\n    tag_122:\n        /* \"#utility.yul\":2467:2610   */\n      swap3\n      swap2\n      pop\n      pop\n      jump\t// out\n        /* \"#utility.yul\":2616:2967   */\n    tag_45:\n        /* \"#utility.yul\":2686:2692   */\n      0x00\n        /* \"#utility.yul\":2735:2737   */\n      0x20\n        /* \"#utility.yul\":2723:2732   */\n      dup3\n        /* \"#utility.yul\":2714:2721   */\n      dup5\n        /* \"#utility.yul\":2710:2733   */\n      sub\n        /* \"#utility.yul\":2706:2738   */\n      slt\n        /* \"#utility.yul\":2703:2822   */\n      iszero\n      tag_124\n      jumpi\n        /* \"#utility.yul\":2741:2820   */\n      tag_125\n      tag_78\n      jump\t// in\n    tag_125:\n        /* \"#utility.yul\":2703:2822   */\n    tag_124:\n        /* \"#utility.yul\":2861:2862   */\n      0x00\n        /* \"#utility.yul\":2886:2950   */\n      tag_126\n        /* \"#utility.yul\":2942:2949   */\n      dup5\n        /* \"#utility.yul\":2933:2939   */\n      dup3\n        /* \"#utility.yul\":2922:2931   */\n      dup6\n        /* \"#utility.yul\":2918:2940   */\n      add\n        /* \"#utility.yul\":2886:2950   */\n      tag_81\n      jump\t// in\n    tag_126:\n        /* \"#utility.yul\":2876:2950   */\n      swap2\n      pop\n        /* \"#utility.yul\":2832:2960   */\n      pop\n        /* \"#utility.yul\":2616:2967   */\n      swap3\n      swap2\n      pop\n      pop\n      jump\t// out\n        /* \"#utility.yul\":2973:3153   */\n    tag_82:\n        /* \"#utility.yul\":3021:3098   */\n      0x4e487b7100000000000000000000000000000000000000000000000000000000\n        /* \"#utility.yul\":3018:3019   */\n      0x00\n        /* \"#utility.yul\":3011:3099   */\n      mstore\n        /* \"#utility.yul\":3118:3122   */\n      0x11\n        /* \"#utility.yul\":3115:3116   */\n      0x04\n        /* \"#utility.yul\":3108:3123   */\n      mstore\n        /* \"#utility.yul\":3142:3146   */\n      0x24\n        /* \"#utility.yul\":3139:3140   */\n      0x00\n        /* \"#utility.yul\":3132:3147   */\n      revert\n        /* \"#utility.yul\":3159:3569   */\n    tag_47:\n        /* \"#utility.yul\":3199:3206   */\n      0x00\n        /* \"#utility.yul\":3222:3242   */\n      tag_129\n        /* \"#utility.yul\":3240:3241   */\n      dup3\n        /* \"#utility.yul\":3222:3242   */\n      tag_70\n      jump\t// in\n    tag_129:\n        /* \"#utility.yul\":3217:3242   */\n      swap2\n      pop\n        /* \"#utility.yul\":3256:3276   */\n      tag_130\n        /* \"#utility.yul\":3274:3275   */\n      dup4\n        /* \"#utility.yul\":3256:3276   */\n      tag_70\n      jump\t// in\n    tag_130:\n        /* \"#utility.yul\":3251:3276   */\n      swap3\n      pop\n        /* \"#utility.yul\":3311:3312   */\n      dup3\n        /* \"#utility.yul\":3308:3309   */\n      dup3\n        /* \"#utility.yul\":3304:3313   */\n      mul\n        /* \"#utility.yul\":3333:3363   */\n      tag_131\n        /* \"#utility.yul\":3351:3362   */\n      dup2\n        /* \"#utility.yul\":3333:3363   */\n      tag_70\n      jump\t// in\n    tag_131:\n        /* \"#utility.yul\":3322:3363   */\n      swap2\n      pop\n        /* \"#utility.yul\":3512:3513   */\n      dup3\n        /* \"#utility.yul\":3503:3510   */\n      dup3\n        /* \"#utility.yul\":3499:3514   */\n      div\n        /* \"#utility.yul\":3496:3497   */\n      dup5\n        /* \"#utility.yul\":3493:3515   */\n      eq\n        /* \"#utility.yul\":3473:3474   */\n      dup4\n        /* \"#utility.yul\":3466:3475   */\n      iszero\n        /* \"#utility.yul\":3446:3529   */\n      or\n        /* \"#utility.yul\":3423:3562   */\n      tag_132\n      jumpi\n        /* \"#utility.yul\":3542:3560   */\n      tag_133\n      tag_82\n      jump\t// in\n    tag_133:\n        /* \"#utility.yul\":3423:3562   */\n    tag_132:\n        /* \"#utility.yul\":3207:3569   */\n      pop\n        /* \"#utility.yul\":3159:3569   */\n      swap3\n      swap2\n      pop\n      pop\n      jump\t// out\n        /* \"#utility.yul\":3575:3744   */\n    tag_83:\n        /* \"#utility.yul\":3659:3670   */\n      0x00\n        /* \"#utility.yul\":3693:3699   */\n      dup3\n        /* \"#utility.yul\":3688:3691   */\n      dup3\n        /* \"#utility.yul\":3681:3700   */\n      mstore\n        /* \"#utility.yul\":3733:3737   */\n      0x20\n        /* \"#utility.yul\":3728:3731   */\n      dup3\n        /* \"#utility.yul\":3724:3738   */\n      add\n        /* \"#utility.yul\":3709:3738   */\n      swap1\n      pop\n        /* \"#utility.yul\":3575:3744   */\n      swap3\n      swap2\n      pop\n      pop\n      jump\t// out\n        /* \"#utility.yul\":3750:3909   */\n    tag_84:\n        /* \"#utility.yul\":3890:3901   */\n      0x6572726f72205b315d0000000000000000000000000000000000000000000000\n        /* \"#utility.yul\":3886:3887   */\n      0x00\n        /* \"#utility.yul\":3878:3884   */\n      dup3\n        /* \"#utility.yul\":3874:3888   */\n      add\n        /* \"#utility.yul\":3867:3902   */\n      mstore\n        /* \"#utility.yul\":3750:3909   */\n      pop\n      jump\t// out\n        /* \"#utility.yul\":3915:4280   */\n    tag_85:\n        /* \"#utility.yul\":4057:4060   */\n      0x00\n        /* \"#utility.yul\":4078:4144   */\n      tag_137\n        /* \"#utility.yul\":4142:4143   */\n      0x09\n        /* \"#utility.yul\":4137:4140   */\n      dup4\n        /* \"#utility.yul\":4078:4144   */\n      tag_83\n      jump\t// in\n    tag_137:\n        /* \"#utility.yul\":4071:4144   */\n      swap2\n      pop\n        /* \"#utility.yul\":4153:4246   */\n      tag_138\n        /* \"#utility.yul\":4242:4245   */\n      dup3\n        /* \"#utility.yul\":4153:4246   */\n      tag_84\n      jump\t// in\n    tag_138:\n        /* \"#utility.yul\":4271:4273   */\n      0x20\n        /* \"#utility.yul\":4266:4269   */\n      dup3\n        /* \"#utility.yul\":4262:4274   */\n      add\n        /* \"#utility.yul\":4255:4274   */\n      swap1\n      pop\n        /* \"#utility.yul\":3915:4280   */\n      swap2\n      swap1\n      pop\n      jump\t// out\n        /* \"#utility.yul\":4286:4705   */\n    tag_54:\n        /* \"#utility.yul\":4452:4456   */\n      0x00\n        /* \"#utility.yul\":4490:4492   */\n      0x20\n        /* \"#utility.yul\":4479:4488   */\n      dup3\n        /* \"#utility.yul\":4475:4493   */\n      add\n        /* \"#utility.yul\":4467:4493   */\n      swap1\n      pop\n        /* \"#utility.yul\":4539:4548   */\n      dup2\n        /* \"#utility.yul\":4533:4537   */\n      dup2\n        /* \"#utility.yul\":4529:4549   */\n      sub\n        /* \"#utility.yul\":4525:4526   */\n      0x00\n        /* \"#utility.yul\":4514:4523   */\n      dup4\n        /* \"#utility.yul\":4510:4527   */\n      add\n        /* \"#utility.yul\":4503:4550   */\n      mstore\n        /* \"#utility.yul\":4567:4698   */\n      tag_140\n        /* \"#utility.yul\":4693:4697   */\n      dup2\n        /* \"#utility.yul\":4567:4698   */\n      tag_85\n      jump\t// in\n    tag_140:\n        /* \"#utility.yul\":4559:4698   */\n      swap1\n      pop\n        /* \"#utility.yul\":4286:4705   */\n      swap2\n      swap1\n      pop\n      jump\t// out\n        /* \"#utility.yul\":4711:5043   */\n    tag_56:\n        /* \"#utility.yul\":4832:4836   */\n      0x00\n        /* \"#utility.yul\":4870:4872   */\n      0x40\n        /* \"#utility.yul\":4859:4868   */\n      dup3\n        /* \"#utility.yul\":4855:4873   */\n      add\n        /* \"#utility.yul\":4847:4873   */\n      swap1\n      pop\n        /* \"#utility.yul\":4883:4954   */\n      tag_142\n        /* \"#utility.yul\":4951:4952   */\n      0x00\n        /* \"#utility.yul\":4940:4949   */\n      dup4\n        /* \"#utility.yul\":4936:4953   */\n      add\n        /* \"#utility.yul\":4927:4933   */\n      dup6\n        /* \"#utility.yul\":4883:4954   */\n      tag_69\n      jump\t// in\n    tag_142:\n        /* \"#utility.yul\":4964:5036   */\n      tag_143\n        /* \"#utility.yul\":5032:5034   */\n      0x20\n        /* \"#utility.yul\":5021:5030   */\n      dup4\n        /* \"#utility.yul\":5017:5035   */\n      add\n        /* \"#utility.yul\":5008:5014   */\n      dup5\n        /* \"#utility.yul\":4964:5036   */\n      tag_71\n      jump\t// in\n    tag_143:\n        /* \"#utility.yul\":4711:5043   */\n      swap4\n      swap3\n      pop\n      pop\n      pop\n      jump\t// out\n        /* \"#utility.yul\":5049:5139   */\n    tag_86:\n        /* \"#utility.yul\":5083:5090   */\n      0x00\n        /* \"#utility.yul\":5126:5131   */\n      dup2\n        /* \"#utility.yul\":5119:5132   */\n      iszero\n        /* \"#utility.yul\":5112:5133   */\n      iszero\n        /* \"#utility.yul\":5101:5133   */\n      swap1\n      pop\n        /* \"#utility.yul\":5049:5139   */\n      swap2\n      swap1\n      pop\n      jump\t// out\n        /* \"#utility.yul\":5145:5261   */\n    tag_87:\n        /* \"#utility.yul\":5215:5236   */\n      tag_146\n        /* \"#utility.yul\":5230:5235   */\n      dup2\n        /* \"#utility.yul\":5215:5236   */\n      tag_86\n      jump\t// in\n    tag_146:\n        /* \"#utility.yul\":5208:5213   */\n      dup2\n        /* \"#utility.yul\":5205:5237   */\n      eq\n        /* \"#utility.yul\":5195:5255   */\n      tag_147\n      jumpi\n        /* \"#utility.yul\":5251:5252   */\n      0x00\n        /* \"#utility.yul\":5248:5249   */\n      dup1\n        /* \"#utility.yul\":5241:5253   */\n      revert\n        /* \"#utility.yul\":5195:5255   */\n    tag_147:\n        /* \"#utility.yul\":5145:5261   */\n      pop\n      jump\t// out\n        /* \"#utility.yul\":5267:5404   */\n    tag_88:\n        /* \"#utility.yul\":5321:5326   */\n      0x00\n        /* \"#utility.yul\":5352:5358   */\n      dup2\n        /* \"#utility.yul\":5346:5359   */\n      mload\n        /* \"#utility.yul\":5337:5359   */\n      swap1\n      pop\n        /* \"#utility.yul\":5368:5398   */\n      tag_149\n        /* \"#utility.yul\":5392:5397   */\n      dup2\n        /* \"#utility.yul\":5368:5398   */\n      tag_87\n      jump\t// in\n    tag_149:\n        /* \"#utility.yul\":5267:5404   */\n      swap3\n      swap2\n      pop\n      pop\n      jump\t// out\n        /* \"#utility.yul\":5410:5755   */\n    tag_60:\n        /* \"#utility.yul\":5477:5483   */\n      0x00\n        /* \"#utility.yul\":5526:5528   */\n      0x20\n        /* \"#utility.yul\":5514:5523   */\n      dup3\n        /* \"#utility.yul\":5505:5512   */\n      dup5\n        /* \"#utility.yul\":5501:5524   */\n      sub\n        /* \"#utility.yul\":5497:5529   */\n      slt\n        /* \"#utility.yul\":5494:5613   */\n      iszero\n      tag_151\n      jumpi\n        /* \"#utility.yul\":5532:5611   */\n      tag_152\n      tag_78\n      jump\t// in\n    tag_152:\n        /* \"#utility.yul\":5494:5613   */\n    tag_151:\n        /* \"#utility.yul\":5652:5653   */\n      0x00\n        /* \"#utility.yul\":5677:5738   */\n      tag_153\n        /* \"#utility.yul\":5730:5737   */\n      dup5\n        /* \"#utility.yul\":5721:5727   */\n      dup3\n        /* \"#utility.yul\":5710:5719   */\n      dup6\n        /* \"#utility.yul\":5706:5728   */\n      add\n        /* \"#utility.yul\":5677:5738   */\n      tag_88\n      jump\t// in\n    tag_153:\n        /* \"#utility.yul\":5667:5738   */\n      swap2\n      pop\n        /* \"#utility.yul\":5623:5748   */\n      pop\n        /* \"#utility.yul\":5410:5755   */\n      swap3\n      swap2\n      pop\n      pop\n      jump\t// out\n\n    auxdata: 0xa264697066735822122030be0165f6485575ae1d5c3ee42f383a92c4ce9dece7d27df95f510eb91c484c64736f6c63430008130033\n}\n",
				"bytecode": {
					"linkReferences": {},
					"object": "608060405234801561001057600080fd5b506040516109473803806109478339818101604052810190610032919061012e565b806000806101000a81548173ffffffffffffffffffffffffffffffffffffffff021916908373ffffffffffffffffffffffffffffffffffffffff16021790555033600160006101000a81548173ffffffffffffffffffffffffffffffffffffffff021916908373ffffffffffffffffffffffffffffffffffffffff1602179055505061015b565b600080fd5b600073ffffffffffffffffffffffffffffffffffffffff82169050919050565b60006100e9826100be565b9050919050565b60006100fb826100de565b9050919050565b61010b816100f0565b811461011657600080fd5b50565b60008151905061012881610102565b92915050565b600060208284031215610144576101436100b9565b5b600061015284828501610119565b91505092915050565b6107dd8061016a6000396000f3fe6080604052600436106100705760003560e01c8063a48217191161004e578063a4821719146100f6578063c7b00aad14610100578063d39538221461012b578063fc0c546a1461015657610070565b806321df0da7146100755780637a6ce2e1146100a05780638da5cb5b146100cb575b600080fd5b34801561008157600080fd5b5061008a610181565b6040516100979190610504565b60405180910390f35b3480156100ac57600080fd5b506100b56101aa565b6040516100c29190610504565b60405180910390f35b3480156100d757600080fd5b506100e06101b2565b6040516100ed9190610504565b60405180910390f35b6100fe6101d8565b005b34801561010c57600080fd5b506101156103f5565b6040516101229190610538565b60405180910390f35b34801561013757600080fd5b50610140610497565b60405161014d9190610504565b60405180910390f35b34801561016257600080fd5b5061016b61049f565b60405161017891906105b2565b60405180910390f35b60008060009054906101000a900473ffffffffffffffffffffffffffffffffffffffff16905090565b600033905090565b600160009054906101000a900473ffffffffffffffffffffffffffffffffffffffff1681565b60008060009054906101000a900473ffffffffffffffffffffffffffffffffffffffff1673ffffffffffffffffffffffffffffffffffffffff1663679aefce6040518163ffffffff1660e01b8152600401602060405180830381865afa158015610246573d6000803e3d6000fd5b505050506040513d601f19601f8201168201806040525081019061026a91906105fe565b34610275919061065a565b90508060008054906101000a900473ffffffffffffffffffffffffffffffffffffffff1673ffffffffffffffffffffffffffffffffffffffff166370a08231306040518263ffffffff1660e01b81526004016102d19190610504565b602060405180830381865afa1580156102ee573d6000803e3d6000fd5b505050506040513d601f19601f8201168201806040525081019061031291906105fe565b1015610353576040517f08c379a000000000000000000000000000000000000000000000000000000000815260040161034a906106f9565b60405180910390fd5b60008054906101000a900473ffffffffffffffffffffffffffffffffffffffff1673ffffffffffffffffffffffffffffffffffffffff1663a9059cbb33836040518363ffffffff1660e01b81526004016103ae929190610719565b6020604051808303816000875af11580156103cd573d6000803e3d6000fd5b505050506040513d601f19601f820116820180604052508101906103f1919061077a565b5050565b60008060009054906101000a900473ffffffffffffffffffffffffffffffffffffffff1673ffffffffffffffffffffffffffffffffffffffff166370a08231336040518263ffffffff1660e01b81526004016104519190610504565b602060405180830381865afa15801561046e573d6000803e3d6000fd5b505050506040513d601f19601f8201168201806040525081019061049291906105fe565b905090565b600030905090565b60008054906101000a900473ffffffffffffffffffffffffffffffffffffffff1681565b600073ffffffffffffffffffffffffffffffffffffffff82169050919050565b60006104ee826104c3565b9050919050565b6104fe816104e3565b82525050565b600060208201905061051960008301846104f5565b92915050565b6000819050919050565b6105328161051f565b82525050565b600060208201905061054d6000830184610529565b92915050565b6000819050919050565b600061057861057361056e846104c3565b610553565b6104c3565b9050919050565b600061058a8261055d565b9050919050565b600061059c8261057f565b9050919050565b6105ac81610591565b82525050565b60006020820190506105c760008301846105a3565b92915050565b600080fd5b6105db8161051f565b81146105e657600080fd5b50565b6000815190506105f8816105d2565b92915050565b600060208284031215610614576106136105cd565b5b6000610622848285016105e9565b91505092915050565b7f4e487b7100000000000000000000000000000000000000000000000000000000600052601160045260246000fd5b60006106658261051f565b91506106708361051f565b925082820261067e8161051f565b915082820484148315176106955761069461062b565b5b5092915050565b600082825260208201905092915050565b7f6572726f72205b315d0000000000000000000000000000000000000000000000600082015250565b60006106e360098361069c565b91506106ee826106ad565b602082019050919050565b60006020820190508181036000830152610712816106d6565b9050919050565b600060408201905061072e60008301856104f5565b61073b6020830184610529565b9392505050565b60008115159050919050565b61075781610742565b811461076257600080fd5b50565b6000815190506107748161074e565b92915050565b6000602082840312156107905761078f6105cd565b5b600061079e84828501610765565b9150509291505056fea264697066735822122030be0165f6485575ae1d5c3ee42f383a92c4ce9dece7d27df95f510eb91c484c64736f6c63430008130033",
					"opcodes": "PUSH1 0x80 PUSH1 0x40 MSTORE CALLVALUE DUP1 ISZERO PUSH2 0x10 JUMPI PUSH1 0x0 DUP1 REVERT JUMPDEST POP PUSH1 0x40 MLOAD PUSH2 0x947 CODESIZE SUB DUP1 PUSH2 0x947 DUP4 CODECOPY DUP2 DUP2 ADD PUSH1 0x40 MSTORE DUP2 ADD SWAP1 PUSH2 0x32 SWAP2 SWAP1 PUSH2 0x12E JUMP JUMPDEST DUP1 PUSH1 0x0 DUP1 PUSH2 0x100 EXP DUP2 SLOAD DUP2 PUSH20 0xFFFFFFFFFFFFFFFFFFFFFFFFFFFFFFFFFFFFFFFF MUL NOT AND SWAP1 DUP4 PUSH20 0xFFFFFFFFFFFFFFFFFFFFFFFFFFFFFFFFFFFFFFFF AND MUL OR SWAP1 SSTORE POP CALLER PUSH1 0x1 PUSH1 0x0 PUSH2 0x100 EXP DUP2 SLOAD DUP2 PUSH20 0xFFFFFFFFFFFFFFFFFFFFFFFFFFFFFFFFFFFFFFFF MUL NOT AND SWAP1 DUP4 PUSH20 0xFFFFFFFFFFFFFFFFFFFFFFFFFFFFFFFFFFFFFFFF AND MUL OR SWAP1 SSTORE POP POP PUSH2 0x15B JUMP JUMPDEST PUSH1 0x0 DUP1 REVERT JUMPDEST PUSH1 0x0 PUSH20 0xFFFFFFFFFFFFFFFFFFFFFFFFFFFFFFFFFFFFFFFF DUP3 AND SWAP1 POP SWAP2 SWAP1 POP JUMP JUMPDEST PUSH1 0x0 PUSH2 0xE9 DUP3 PUSH2 0xBE JUMP JUMPDEST SWAP1 POP SWAP2 SWAP1 POP JUMP JUMPDEST PUSH1 0x0 PUSH2 0xFB DUP3 PUSH2 0xDE JUMP JUMPDEST SWAP1 POP SWAP2 SWAP1 POP JUMP JUMPDEST PUSH2 0x10B DUP2 PUSH2 0xF0 JUMP JUMPDEST DUP2 EQ PUSH2 0x116 JUMPI PUSH1 0x0 DUP1 REVERT JUMPDEST POP JUMP JUMPDEST PUSH1 0x0 DUP2 MLOAD SWAP1 POP PUSH2 0x128 DUP2 PUSH2 0x102 JUMP JUMPDEST SWAP3 SWAP2 POP POP JUMP JUMPDEST PUSH1 0x0 PUSH1 0x20 DUP3 DUP5 SUB SLT ISZERO PUSH2 0x144 JUMPI PUSH2 0x143 PUSH2 0xB9 JUMP JUMPDEST JUMPDEST PUSH1 0x0 PUSH2 0x152 DUP5 DUP3 DUP6 ADD PUSH2 0x119 JUMP JUMPDEST SWAP2 POP POP SWAP3 SWAP2 POP POP JUMP JUMPDEST PUSH2 0x7DD DUP1 PUSH2 0x16A PUSH1 0x0 CODECOPY PUSH1 0x0 RETURN INVALID PUSH1 0x80 PUSH1 0x40 MSTORE PUSH1 0x4 CALLDATASIZE LT PUSH2 0x70 JUMPI PUSH1 0x0 CALLDATALOAD PUSH1 0xE0 SHR DUP1 PUSH4 0xA4821719 GT PUSH2 0x4E JUMPI DUP1 PUSH4 0xA4821719 EQ PUSH2 0xF6 JUMPI DUP1 PUSH4 0xC7B00AAD EQ PUSH2 0x100 JUMPI DUP1 PUSH4 0xD3953822 EQ PUSH2 0x12B JUMPI DUP1 PUSH4 0xFC0C546A EQ PUSH2 0x156 JUMPI PUSH2 0x70 JUMP JUMPDEST DUP1 PUSH4 0x21DF0DA7 EQ PUSH2 0x75 JUMPI DUP1 PUSH4 0x7A6CE2E1 EQ PUSH2 0xA0 JUMPI DUP1 PUSH4 0x8DA5CB5B EQ PUSH2 0xCB JUMPI JUMPDEST PUSH1 0x0 DUP1 REVERT JUMPDEST CALLVALUE DUP1 ISZERO PUSH2 0x81 JUMPI PUSH1 0x0 DUP1 REVERT JUMPDEST POP PUSH2 0x8A PUSH2 0x181 JUMP JUMPDEST PUSH1 0x40 MLOAD PUSH2 0x97 SWAP2 SWAP1 PUSH2 0x504 JUMP JUMPDEST PUSH1 0x40 MLOAD DUP1 SWAP2 SUB SWAP1 RETURN JUMPDEST CALLVALUE DUP1 ISZERO PUSH2 0xAC JUMPI PUSH1 0x0 DUP1 REVERT JUMPDEST POP PUSH2 0xB5 PUSH2 0x1AA JUMP JUMPDEST PUSH1 0x40 MLOAD PUSH2 0xC2 SWAP2 SWAP1 PUSH2 0x504 JUMP JUMPDEST PUSH1 0x40 MLOAD DUP1 SWAP2 SUB SWAP1 RETURN JUMPDEST CALLVALUE DUP1 ISZERO PUSH2 0xD7 JUMPI PUSH1 0x0 DUP1 REVERT JUMPDEST POP PUSH2 0xE0 PUSH2 0x1B2 JUMP JUMPDEST PUSH1 0x40 MLOAD PUSH2 0xED SWAP2 SWAP1 PUSH2 0x504 JUMP JUMPDEST PUSH1 0x40 MLOAD DUP1 SWAP2 SUB SWAP1 RETURN JUMPDEST PUSH2 0xFE PUSH2 0x1D8 JUMP JUMPDEST STOP JUMPDEST CALLVALUE DUP1 ISZERO PUSH2 0x10C JUMPI PUSH1 0x0 DUP1 REVERT JUMPDEST POP PUSH2 0x115 PUSH2 0x3F5 JUMP JUMPDEST PUSH1 0x40 MLOAD PUSH2 0x122 SWAP2 SWAP1 PUSH2 0x538 JUMP JUMPDEST PUSH1 0x40 MLOAD DUP1 SWAP2 SUB SWAP1 RETURN JUMPDEST CALLVALUE DUP1 ISZERO PUSH2 0x137 JUMPI PUSH1 0x0 DUP1 REVERT JUMPDEST POP PUSH2 0x140 PUSH2 0x497 JUMP JUMPDEST PUSH1 0x40 MLOAD PUSH2 0x14D SWAP2 SWAP1 PUSH2 0x504 JUMP JUMPDEST PUSH1 0x40 MLOAD DUP1 SWAP2 SUB SWAP1 RETURN JUMPDEST CALLVALUE DUP1 ISZERO PUSH2 0x162 JUMPI PUSH1 0x0 DUP1 REVERT JUMPDEST POP PUSH2 0x16B PUSH2 0x49F JUMP JUMPDEST PUSH1 0x40 MLOAD PUSH2 0x178 SWAP2 SWAP1 PUSH2 0x5B2 JUMP JUMPDEST PUSH1 0x40 MLOAD DUP1 SWAP2 SUB SWAP1 RETURN JUMPDEST PUSH1 0x0 DUP1 PUSH1 0x0 SWAP1 SLOAD SWAP1 PUSH2 0x100 EXP SWAP1 DIV PUSH20 0xFFFFFFFFFFFFFFFFFFFFFFFFFFFFFFFFFFFFFFFF AND SWAP1 POP SWAP1 JUMP JUMPDEST PUSH1 0x0 CALLER SWAP1 POP SWAP1 JUMP JUMPDEST PUSH1 0x1 PUSH1 0x0 SWAP1 SLOAD SWAP1 PUSH2 0x100 EXP SWAP1 DIV PUSH20 0xFFFFFFFFFFFFFFFFFFFFFFFFFFFFFFFFFFFFFFFF AND DUP2 JUMP JUMPDEST PUSH1 0x0 DUP1 PUSH1 0x0 SWAP1 SLOAD SWAP1 PUSH2 0x100 EXP SWAP1 DIV PUSH20 0xFFFFFFFFFFFFFFFFFFFFFFFFFFFFFFFFFFFFFFFF AND PUSH20 0xFFFFFFFFFFFFFFFFFFFFFFFFFFFFFFFFFFFFFFFF AND PUSH4 0x679AEFCE PUSH1 0x40 MLOAD DUP2 PUSH4 0xFFFFFFFF AND PUSH1 0xE0 SHL DUP2 MSTORE PUSH1 0x4 ADD PUSH1 0x20 PUSH1 0x40 MLOAD DUP1 DUP4 SUB DUP2 DUP7 GAS STATICCALL ISZERO DUP1 ISZERO PUSH2 0x246 JUMPI RETURNDATASIZE PUSH1 0x0 DUP1 RETURNDATACOPY RETURNDATASIZE PUSH1 0x0 REVERT JUMPDEST POP POP POP POP PUSH1 0x40 MLOAD RETURNDATASIZE PUSH1 0x1F NOT PUSH1 0x1F DUP3 ADD AND DUP3 ADD DUP1 PUSH1 0x40 MSTORE POP DUP2 ADD SWAP1 PUSH2 0x26A SWAP2 SWAP1 PUSH2 0x5FE JUMP JUMPDEST CALLVALUE PUSH2 0x275 SWAP2 SWAP1 PUSH2 0x65A JUMP JUMPDEST SWAP1 POP DUP1 PUSH1 0x0 DUP1 SLOAD SWAP1 PUSH2 0x100 EXP SWAP1 DIV PUSH20 0xFFFFFFFFFFFFFFFFFFFFFFFFFFFFFFFFFFFFFFFF AND PUSH20 0xFFFFFFFFFFFFFFFFFFFFFFFFFFFFFFFFFFFFFFFF AND PUSH4 0x70A08231 ADDRESS PUSH1 0x40 MLOAD DUP3 PUSH4 0xFFFFFFFF AND PUSH1 0xE0 SHL DUP2 MSTORE PUSH1 0x4 ADD PUSH2 0x2D1 SWAP2 SWAP1 PUSH2 0x504 JUMP JUMPDEST PUSH1 0x20 PUSH1 0x40 MLOAD DUP1 DUP4 SUB DUP2 DUP7 GAS STATICCALL ISZERO DUP1 ISZERO PUSH2 0x2EE JUMPI RETURNDATASIZE PUSH1 0x0 DUP1 RETURNDATACOPY RETURNDATASIZE PUSH1 0x0 REVERT JUMPDEST POP POP POP POP PUSH1 0x40 MLOAD RETURNDATASIZE PUSH1 0x1F NOT PUSH1 0x1F DUP3 ADD AND DUP3 ADD DUP1 PUSH1 0x40 MSTORE POP DUP2 ADD SWAP1 PUSH2 0x312 SWAP2 SWAP1 PUSH2 0x5FE JUMP JUMPDEST LT ISZERO PUSH2 0x353 JUMPI PUSH1 0x40 MLOAD PUSH32 0x8C379A000000000000000000000000000000000000000000000000000000000 DUP2 MSTORE PUSH1 0x4 ADD PUSH2 0x34A SWAP1 PUSH2 0x6F9 JUMP JUMPDEST PUSH1 0x40 MLOAD DUP1 SWAP2 SUB SWAP1 REVERT JUMPDEST PUSH1 0x0 DUP1 SLOAD SWAP1 PUSH2 0x100 EXP SWAP1 DIV PUSH20 0xFFFFFFFFFFFFFFFFFFFFFFFFFFFFFFFFFFFFFFFF AND PUSH20 0xFFFFFFFFFFFFFFFFFFFFFFFFFFFFFFFFFFFFFFFF AND PUSH4 0xA9059CBB CALLER DUP4 PUSH1 0x40 MLOAD DUP4 PUSH4 0xFFFFFFFF AND PUSH1 0xE0 SHL DUP2 MSTORE PUSH1 0x4 ADD PUSH2 0x3AE SWAP3 SWAP2 SWAP1 PUSH2 0x719 JUMP JUMPDEST PUSH1 0x20 PUSH1 0x40 MLOAD DUP1 DUP4 SUB DUP2 PUSH1 0x0 DUP8 GAS CALL ISZERO DUP1 ISZERO PUSH2 0x3CD JUMPI RETURNDATASIZE PUSH1 0x0 DUP1 RETURNDATACOPY RETURNDATASIZE PUSH1 0x0 REVERT JUMPDEST POP POP POP POP PUSH1 0x40 MLOAD RETURNDATASIZE PUSH1 0x1F NOT PUSH1 0x1F DUP3 ADD AND DUP3 ADD DUP1 PUSH1 0x40 MSTORE POP DUP2 ADD SWAP1 PUSH2 0x3F1 SWAP2 SWAP1 PUSH2 0x77A JUMP JUMPDEST POP POP JUMP JUMPDEST PUSH1 0x0 DUP1 PUSH1 0x0 SWAP1 SLOAD SWAP1 PUSH2 0x100 EXP SWAP1 DIV PUSH20 0xFFFFFFFFFFFFFFFFFFFFFFFFFFFFFFFFFFFFFFFF AND PUSH20 0xFFFFFFFFFFFFFFFFFFFFFFFFFFFFFFFFFFFFFFFF AND PUSH4 0x70A08231 CALLER PUSH1 0x40 MLOAD DUP3 PUSH4 0xFFFFFFFF AND PUSH1 0xE0 SHL DUP2 MSTORE PUSH1 0x4 ADD PUSH2 0x451 SWAP2 SWAP1 PUSH2 0x504 JUMP JUMPDEST PUSH1 0x20 PUSH1 0x40 MLOAD DUP1 DUP4 SUB DUP2 DUP7 GAS STATICCALL ISZERO DUP1 ISZERO PUSH2 0x46E JUMPI RETURNDATASIZE PUSH1 0x0 DUP1 RETURNDATACOPY RETURNDATASIZE PUSH1 0x0 REVERT JUMPDEST POP POP POP POP PUSH1 0x40 MLOAD RETURNDATASIZE PUSH1 0x1F NOT PUSH1 0x1F DUP3 ADD AND DUP3 ADD DUP1 PUSH1 0x40 MSTORE POP DUP2 ADD SWAP1 PUSH2 0x492 SWAP2 SWAP1 PUSH2 0x5FE JUMP JUMPDEST SWAP1 POP SWAP1 JUMP JUMPDEST PUSH1 0x0 ADDRESS SWAP1 POP SWAP1 JUMP JUMPDEST PUSH1 0x0 DUP1 SLOAD SWAP1 PUSH2 0x100 EXP SWAP1 DIV PUSH20 0xFFFFFFFFFFFFFFFFFFFFFFFFFFFFFFFFFFFFFFFF AND DUP2 JUMP JUMPDEST PUSH1 0x0 PUSH20 0xFFFFFFFFFFFFFFFFFFFFFFFFFFFFFFFFFFFFFFFF DUP3 AND SWAP1 POP SWAP2 SWAP1 POP JUMP JUMPDEST PUSH1 0x0 PUSH2 0x4EE DUP3 PUSH2 0x4C3 JUMP JUMPDEST SWAP1 POP SWAP2 SWAP1 POP JUMP JUMPDEST PUSH2 0x4FE DUP2 PUSH2 0x4E3 JUMP JUMPDEST DUP3 MSTORE POP POP JUMP JUMPDEST PUSH1 0x0 PUSH1 0x20 DUP3 ADD SWAP1 POP PUSH2 0x519 PUSH1 0x0 DUP4 ADD DUP5 PUSH2 0x4F5 JUMP JUMPDEST SWAP3 SWAP2 POP POP JUMP JUMPDEST PUSH1 0x0 DUP2 SWAP1 POP SWAP2 SWAP1 POP JUMP JUMPDEST PUSH2 0x532 DUP2 PUSH2 0x51F JUMP JUMPDEST DUP3 MSTORE POP POP JUMP JUMPDEST PUSH1 0x0 PUSH1 0x20 DUP3 ADD SWAP1 POP PUSH2 0x54D PUSH1 0x0 DUP4 ADD DUP5 PUSH2 0x529 JUMP JUMPDEST SWAP3 SWAP2 POP POP JUMP JUMPDEST PUSH1 0x0 DUP2 SWAP1 POP SWAP2 SWAP1 POP JUMP JUMPDEST PUSH1 0x0 PUSH2 0x578 PUSH2 0x573 PUSH2 0x56E DUP5 PUSH2 0x4C3 JUMP JUMPDEST PUSH2 0x553 JUMP JUMPDEST PUSH2 0x4C3 JUMP JUMPDEST SWAP1 POP SWAP2 SWAP1 POP JUMP JUMPDEST PUSH1 0x0 PUSH2 0x58A DUP3 PUSH2 0x55D JUMP JUMPDEST SWAP1 POP SWAP2 SWAP1 POP JUMP JUMPDEST PUSH1 0x0 PUSH2 0x59C DUP3 PUSH2 0x57F JUMP JUMPDEST SWAP1 POP SWAP2 SWAP1 POP JUMP JUMPDEST PUSH2 0x5AC DUP2 PUSH2 0x591 JUMP JUMPDEST DUP3 MSTORE POP POP JUMP JUMPDEST PUSH1 0x0 PUSH1 0x20 DUP3 ADD SWAP1 POP PUSH2 0x5C7 PUSH1 0x0 DUP4 ADD DUP5 PUSH2 0x5A3 JUMP JUMPDEST SWAP3 SWAP2 POP POP JUMP JUMPDEST PUSH1 0x0 DUP1 REVERT JUMPDEST PUSH2 0x5DB DUP2 PUSH2 0x51F JUMP JUMPDEST DUP2 EQ PUSH2 0x5E6 JUMPI PUSH1 0x0 DUP1 REVERT JUMPDEST POP JUMP JUMPDEST PUSH1 0x0 DUP2 MLOAD SWAP1 POP PUSH2 0x5F8 DUP2 PUSH2 0x5D2 JUMP JUMPDEST SWAP3 SWAP2 POP POP JUMP JUMPDEST PUSH1 0x0 PUSH1 0x20 DUP3 DUP5 SUB SLT ISZERO PUSH2 0x614 JUMPI PUSH2 0x613 PUSH2 0x5CD JUMP JUMPDEST JUMPDEST PUSH1 0x0 PUSH2 0x622 DUP5 DUP3 DUP6 ADD PUSH2 0x5E9 JUMP JUMPDEST SWAP2 POP POP SWAP3 SWAP2 POP POP JUMP JUMPDEST PUSH32 0x4E487B7100000000000000000000000000000000000000000000000000000000 PUSH1 0x0 MSTORE PUSH1 0x11 PUSH1 0x4 MSTORE PUSH1 0x24 PUSH1 0x0 REVERT JUMPDEST PUSH1 0x0 PUSH2 0x665 DUP3 PUSH2 0x51F JUMP JUMPDEST SWAP2 POP PUSH2 0x670 DUP4 PUSH2 0x51F JUMP JUMPDEST SWAP3 POP DUP3 DUP3 MUL PUSH2 0x67E DUP2 PUSH2 0x51F JUMP JUMPDEST SWAP2 POP DUP3 DUP3 DIV DUP5 EQ DUP4 ISZERO OR PUSH2 0x695 JUMPI PUSH2 0x694 PUSH2 0x62B JUMP JUMPDEST JUMPDEST POP SWAP3 SWAP2 POP POP JUMP JUMPDEST PUSH1 0x0 DUP3 DUP3 MSTORE PUSH1 0x20 DUP3 ADD SWAP1 POP SWAP3 SWAP2 POP POP JUMP JUMPDEST PUSH32 0x6572726F72205B315D0000000000000000000000000000000000000000000000 PUSH1 0x0 DUP3 ADD MSTORE POP JUMP JUMPDEST PUSH1 0x0 PUSH2 0x6E3 PUSH1 0x9 DUP4 PUSH2 0x69C JUMP JUMPDEST SWAP2 POP PUSH2 0x6EE DUP3 PUSH2 0x6AD JUMP JUMPDEST PUSH1 0x20 DUP3 ADD SWAP1 POP SWAP2 SWAP1 POP JUMP JUMPDEST PUSH1 0x0 PUSH1 0x20 DUP3 ADD SWAP1 POP DUP2 DUP2 SUB PUSH1 0x0 DUP4 ADD MSTORE PUSH2 0x712 DUP2 PUSH2 0x6D6 JUMP JUMPDEST SWAP1 POP SWAP2 SWAP1 POP JUMP JUMPDEST PUSH1 0x0 PUSH1 0x40 DUP3 ADD SWAP1 POP PUSH2 0x72E PUSH1 0x0 DUP4 ADD DUP6 PUSH2 0x4F5 JUMP JUMPDEST PUSH2 0x73B PUSH1 0x20 DUP4 ADD DUP5 PUSH2 0x529 JUMP JUMPDEST SWAP4 SWAP3 POP POP POP JUMP JUMPDEST PUSH1 0x0 DUP2 ISZERO ISZERO SWAP1 POP SWAP2 SWAP1 POP JUMP JUMPDEST PUSH2 0x757 DUP2 PUSH2 0x742 JUMP JUMPDEST DUP2 EQ PUSH2 0x762 JUMPI PUSH1 0x0 DUP1 REVERT JUMPDEST POP JUMP JUMPDEST PUSH1 0x0 DUP2 MLOAD SWAP1 POP PUSH2 0x774 DUP2 PUSH2 0x74E JUMP JUMPDEST SWAP3 SWAP2 POP POP JUMP JUMPDEST PUSH1 0x0 PUSH1 0x20 DUP3 DUP5 SUB SLT ISZERO PUSH2 0x790 JUMPI PUSH2 0x78F PUSH2 0x5CD JUMP JUMPDEST JUMPDEST PUSH1 0x0 PUSH2 0x79E DUP5 DUP3 DUP6 ADD PUSH2 0x765 JUMP JUMPDEST SWAP2 POP POP SWAP3 SWAP2 POP POP JUMP INVALID LOG2 PUSH5 0x6970667358 0x22 SLT KECCAK256 ADDRESS 0xBE ADD PUSH6 0xF6485575AE1D 0x5C RETURNDATACOPY 0xE4 0x2F CODESIZE GASPRICE SWAP3 0xC4 0xCE SWAP14 0xEC 0xE7 0xD2 PUSH30 0xF95F510EB91C484C64736F6C634300081300330000000000000000000000 "
				},
				"gasEstimates": {
					"creation": {
						"codeDepositCost": "402600",
						"executionCost": "infinite",
						"totalCost": "infinite"
					},
					"external": {
						"buyToken()": "infinite",
						"getMsgSender()": "408",
						"getSwapBalance()": "infinite",
						"getThisAddress()": "429",
						"getToken()": "2523",
						"owner()": "2559",
						"token()": "infinite"
					}
				},
				"methodIdentifiers": {
					"buyToken()": "a4821719",
					"getMsgSender()": "7a6ce2e1",
					"getSwapBalance()": "c7b00aad",
					"getThisAddress()": "d3953822",
					"getToken()": "21df0da7",
					"owner()": "8da5cb5b",
					"token()": "fc0c546a"
				}
			},
			"storageLayout": {
				"storage": [
					{
						"astId": 5,
						"contract": "contracts/Swap.sol:Swap",
						"label": "token",
						"offset": 0,
						"slot": "0",
						"type": "t_contract(TrioToken)189"
					},
					{
						"astId": 7,
						"contract": "contracts/Swap.sol:Swap",
						"label": "owner",
						"offset": 0,
						"slot": "1",
						"type": "t_address"
					}
				],
				"types": {
					"t_address": {
						"encoding": "inplace",
						"label": "address",
						"numberOfBytes": "20"
					},
					"t_contract(TrioToken)189": {
						"encoding": "inplace",
						"label": "contract TrioToken",
						"numberOfBytes": "20"
					}
				}
			},
			"userdoc": {
				"kind": "user",
				"methods": {},
				"version": 1
			}
		}
	}
}